:020000040800F2
:10000000B80800209D01000819560008694B000837
:1000100015560008B90E00084D63000800000000E6
:10002000000000000000000000000000F15900087E
:100030007713000800000000E5580008F359000895
:10004000B7010008A1580008B7010008B70100086F
:10005000B7010008B7010008B7010008B7010008A0
:10006000B7010008B7010008B7010008B701000890
:10007000B7010008B7010008B7010008B701000880
:10008000B7010008B7010008B7010008B701000870
:10009000B7010008B7010008B7010008B701000860
:1000A000B7010008B7010008B7010008B701000850
:1000B000395B0008B7010008B7010008B701000864
:1000C000B7010008B7010008B7010008B701000830
:1000D000B7010008B70100083D630008B701000838
:1000E000B7010008B7010008B7010008B701000810
:1000F000B7010008B7010008B7010008B701000800
:10010000B7010008B7010008B7010008B7010008EF
:10011000B7010008B7010008B7010008B7010008DF
:10012000B7010008B7010008B7010008B7010008CF
:10013000B70100080000000000000000CD0E00081C
:10014000BD0E0008B7010008B7010008B70100089C
:10015000B7010008B7010008B7010008B70100089F
:10016000B7010008B7010008B7010008B70100088F
:10017000B7010008B70100080000000000000000FF
:10018000B7010008B7010008DFF80CD000F0AEFAA4
:1001900000480047056D0008B80800200648804761
:1001A00006480047FEE7FEE7FEE7FEE7FEE7FEE75C
:1001B000FEE7FEE7FEE7FEE7D55A000889010008E2
:1001C0002DE9F05F0546002092469B46884606468C
:1001D000814640241BE0284641464746224600F01F
:1001E000CEF953465A46C01A914110D311461846CB
:1001F000224600F0B5F92D1A67EB01084F4622465A
:100200000120002100F0ACF917EB00094E41201E3F
:10021000A4F10104DFDC484631462A464346BDE8E6
:10022000F09FD2B201E000F8012B491EFBD27047CB
:100230000022F6E710B513460A4604461946FFF7B2
:10024000F0FF204610BD2DE9FE4F804681EA0300F5
:10025000C00F0C46009021F0004123F00045B8EBA0
:100260000200A94105D24046214690461C460B4655
:10027000024623F00040104347D0270DC7F30A0081
:10028000C3F30A510290401A019040286BDAC3F37D
:10029000130040F4801B0098924620B10023D2EB5B
:1002A000030A63EB0B0B01985946C0F1400250461C
:1002B00000F056F906460D4650465946019A00F0A0
:1002C0006EF910EB08006141002487EA115284EABC
:1002D000E7731A4340D0009A62B3019A012A4FEAA9
:1002E000075215DC001B61EB02014FF0004202EAED
:1002F0000752CDE90042001C41F5801132462B46E1
:1003000000F0A5F903B0BDE8F08F40462146F9E7BB
:10031000001B61EB0201001C41F5801300185B41DA
:100320002018A2F5001747EB030140EAD570B61973
:100330006D4111E06D084FEA360645EAC0754FEA97
:100340000752001B61EB0201001C41F580114908B6
:100350004FEA30000019514132462B4603B0BDE848
:10036000F04F00F065B90098012240000023D0EB67
:10037000020263EBE073009821464FEAE074B8EBA9
:10038000000061EB0401E9E783F000435BE781F0E3
:10039000004158E72DE9FE4F81EA030404F00044D0
:1003A00021F0004100944FF0000B23F0004350EA8D
:1003B00001045ED052EA03045BD0C3F30A54C1F3D4
:1003C0000A552C44A4F2F3340194A0FB0254C1F367
:1003D000130141F48011C3F3130343F4801301FBB1
:1003E000024400FB034E840A970A44EA815447EA18
:1003F0008357A4FB076802958D0A05FB07854FEA22
:10040000932C04FB0C542705029D4FEA065847EA3B
:100410001637B5EB08056EEB070C870E920E47EA10
:10042000811742EA8312A7FB0201B6EB0B0164EBD2
:1004300000042B0D43EA0C335E1844EB1C50DA46E3
:100440005146E7FB0201C5F313044FEA0B3343EABD
:1004500014534FEA0432019C43EA0603A4F10C044E
:100460000294009CCDE900B400F0F1F803B0BDE8BF
:10047000F08F00200146F9E70EB540F233410291BA
:100480000021CDE900110A460B4600F0E0F803B068
:1004900000BD70B5C1F30A5201F000450024C1F35C
:1004A000130140F2FF3341F480119A4201DA002037
:1004B00070BD40F233439A42A2F2334203DC52420F
:1004C00000F05DF800E090402C43F1D0404270BD58
:1004D00000F0004230F000400AD0C10D01F560711B
:1004E000C0F3160042EA0151C208400711437047A9
:1004F000002001467047000030B5041E71F1000471
:1005000004DB4FF00044404264EB0101141E73F120
:10051000000405DB1C464FF00043524263EB04032A
:10052000994208BF904230BD01F0004330B421F041
:10053000004150EA010206D00A0DA2F56072C1F333
:100540001301002A02DC30BC00207047440F44EA4B
:10055000C104C100E01830BC00EBC25000F031B85B
:10056000202A04DB203A00FA02F100207047914073
:10057000C2F1200320FA03F3194390407047202A68
:1005800004DB203A21FA02F00021704721FA02F33D
:10059000D040C2F120029140084319467047202AFA
:1005A00006DBCB17203A41FA02F043EAE07306E09B
:1005B00041FA02F3D040C2F12002914008431946AB
:1005C00070470029A8BF7047401C490008BF20F0B1
:1005D0000100704710B4B0FA80FC00FA0CF050EA49
:1005E000010404BF10BC704749B1CCF1200421FACA
:1005F00004F411FA0CF118BF012121430843A3EBC5
:100600000C01CB1D4FEA00614FEA102042BF0020D1
:1006100010BC704700EBC35010440029A4BF10BCAD
:100620007047401C490008BF20F0010010BC704713
:1006300010B5141E73F1000408DA401C41F10001EA
:1006400092185B411A4301D120F0010010BD2DE941
:10065000F04D92469B4611B1B1FA81F202E0B0FA38
:1006600080F220329046FFF77BFF04460F4640EAB7
:100670000A0041EA0B0153465A46084313D011467B
:1006800053EA010019D0C8F140025046FFF777FF46
:1006900005460E46504659464246FFF761FF08435D
:1006A00005D0012004E020463946BDE8F08D002049
:1006B000054346EAE0762C4337430A986305E40A8B
:1006C000A0EB08000022FD0A44EA47540A3002D594
:1006D00000200146E9E7010510196941DDE90845F7
:1006E00000196941BDE8F04DA2E70000064C074D36
:1006F00006E0E06840F0010394E8070098471034F2
:10070000AC42F6D3FFF744FD986F0008B86F0008BD
:100710002DE9F04D81EA030404F0004B21F000457F
:1007200014464FF0000A23F0004150EA050220D0A1
:1007300054EA01021DD0C5F30A570246C5F313035C
:10074000C1F31300C1F30A5640F4801543F480133B
:10075000A7EB0608101BD64608F2FD3873EB050020
:1007600002D308F1010801E092185B41B8F1000FD3
:1007700003DA00200146BDE8F08D00204FF480111F
:10078000064684460EE0171B73EB050705D3121BC4
:1007900063EB050306434CEA010C49084FEA3000BD
:1007A00092185B4150EA0107EDD152EA030012D0E2
:1007B00082EA040083EA0501084305D0101BAB411F
:1007C00006D20122002306E000224FF0004302E09F
:1007D0006FF0010253101AEB06004CEB085110EBBE
:1007E0000A0041EB0B01BDE8F04DFFF721BF0EB54C
:1007F000C10F80EAE0700844CA07002140F2334389
:100800008DE80E000A460B46FFF721FF03B000BD3E
:100810002D48006802284CD02C4880892C494988F2
:10082000C0EBA10040F6A72148434FF47A7190FB3A
:10083000F1F026498860274880892549C989C0EB9D
:10084000A10040F6A72148434FF47A7190FBF1F0E4
:1008500020498860204880891D494989C0EBA10052
:1008600040F6A72148434FF47A7190FBF1F01A4902
:1008700088601A4880891649C988C0EBA10040F6F3
:10088000A72148434FF47A7190FBF1F01349886037
:100890000E4880680D4948600E4880680D494860E0
:1008A0000D4880680C4948600C4880680B494860D6
:1008B00008E000200549486006494860064948604C
:1008C00006494860704700004C0000209800002056
:1008D00020030020E4000020300100207C010020E3
:1008E00008B564200123084A08490090084802F02E
:1008F00069F90A2001F01CFF0423034A0549044852
:1009000002F024FB08BD000020030020440000206A
:10091000300300203400002000B50F4800F0F0FA4A
:100920000E4800F0EDFA0E4800F0EAFA0D4800F02B
:10093000E7FA00200849086008490860084908608B
:100940000849086000210448816304488163044821
:1009500081630448816300BD98000020E40000200A
:10096000300100207C01002037B50446052C61D001
:1009700008DC012C34D0022C0BD0032C46D0042CE4
:100980007ED14DE0062C7ED0072C7BD0112CF7D1E8
:1009900000E0B9E05D4802785D494FF4005004F092
:1009A0005DFB5A480078401CC0B2584908700528C1
:1009B00001D90020087001221146564801F0D4FFE9
:1009C00001220221534801F0CFFF012204215148A6
:1009D00001F0CAFF012208214E4801F0C5FF93E053
:1009E0004A4802784C494FF4005004F037FB47481E
:1009F0000078401CC0B245490870032801D9002086
:100A00000870DDE9010104F0B3FF7DE0012251032C
:100A1000404801F0A9FFDDE9010104F075FE73E033
:100A2000012251033B4801F09FFFDDE9010104F081
:100A3000F5FD69E03548027838494FF4005004F07C
:100A40000DFB32480078401CC0B2304908700628BF
:100A500001D900200870012211462E4801F084FFC0
:100A6000012202212B4801F07FFF012204212948A5
:100A700001F07AFF01220821264801F075FF43E0CA
:100A800041E000E025E02148027825494FF400507C
:100A900004F0E4FA1D480078401CC0B21B490870FD
:100AA000082801D90020087001221146194801F0D8
:100AB0005BFF01220221174801F056FF01220421A9
:100AC000144801F051FF01220821124801F04CFFA7
:100AD0001AE0012251030F4801F046FF012211469E
:100AE0000C4801F041FF012202210A4801F03CFFBD
:100AF00001220421074801F037FF0122082105489F
:100B000001F032FF00E000BF00BF3EBD4B000020FF
:100B10006C00002000080240720000205C000020F1
:100B200063000020F0B504460D461646A4F50057B4
:100B3000002F01DBBC4601E0C7F1000CBCF5967F3D
:100B400020D8A5F50052002A01DB944601E0C2F14D
:100B5000000CBCF5967F15D8A6F50051002901DBE5
:100B60008C4601E0C1F1000CBCF5967F0AD8A3F5D4
:100B70000050002801DB844601E0C0F1000CBCF508
:100B8000967F05D90620054908600549487104E0AB
:100B900011200249086002494871F0BD4C00002054
:100BA0005000002010B54FF40061054801F0D4FE5C
:100BB00020B90720034908600349487110BD0000AF
:100BC000000402404C0000205000002010B50848EE
:100BD000006801280BD107480068401C05490860DF
:100BE000032804D9112002490860FFF795FE10BDC3
:100BF0004C000020580000202DE9F0412DED068B1F
:100C000004460D4616461F4614B108207A4908705E
:100C1000201E01DB014600E0414244F62062914281
:100C200006DD05207549086000207349087028E03A
:100C30007348046000EE104AB8EEC00ADFED710A96
:100C400020EE200A10EE101A0846FFF741FC41EC96
:100C50001A0BB0EE4A0AF0EE6A0A05F0ADFBB0EEF0
:100C6000409AF0EE609A9FED680B53EC102B51EC1C
:100C7000190BFFF7E8FA41EC180BFFF755FC604938
:100C8000486215B108205C494870281E01DB014606
:100C900000E0414244F62062914206DD05205749BA
:100CA000086000205449487028E05948056000EE6B
:100CB000105AB8EEC00ADFED530A20EE200A10EEFB
:100CC000101A0846FFF704FC41EC1A0BB0EE4A0A72
:100CD000F0EE6A0A05F070FBB0EE409AF0EE609A12
:100CE0009FED490B53EC102B51EC190BFFF7ABFAAE
:100CF00041EC180BFFF718FC4549486216B1082073
:100D00003D498870301E01DB014600E0414244F657
:100D10002062914206DD05203849086000203649EE
:100D2000887028E03B48066000EE106AB8EEC00A02
:100D3000DFED340A20EE200A10EE101A0846FFF705
:100D4000C7FB41EC1A0BB0EE4A0AF0EE6A0A05F056
:100D500033FBB0EE409AF0EE609A9FED2B0B53EC14
:100D6000102B51EC190BFFF76EFA41EC180BFFF743
:100D7000DBFB2849486217B108201F49C870381E9C
:100D800001DB014600E0414244F62062914206DD6B
:100D900005201A49086000201749C87028E01E483D
:100DA000076000EE107AB8EEC00ADFED160A20EEFA
:100DB000200A10EE101A0846FFF78AFB41EC1A0BC6
:100DC000B0EE4A0AF0EE6A0A05F0F6FAB0EE409A82
:100DD000F0EE609A9FED0C0B53EC102B51EC190BBD
:100DE000FFF731FA41EC180BFFF79EFB0A49486206
:100DF000BDEC068BBDE8F081500000204C000020C7
:100E0000980000209C53C936000000C0F5289C3F84
:100E1000E4000020300100207C0100202048806890
:100E200044F62061884204DC1D48806849428842BB
:100E300004DA03201B4908601B4908701B488068BE
:100E400044F62061884204DC1848806849428842A0
:100E500004DA032013490860134948701448806875
:100E600044F62061884204DC114880684942884287
:100E700004DA03200B4908600B4988700D4880682C
:100E800044F62061884204DC0A488068494288426E
:100E900004DA0320034908600349C8707047000062
:100EA000980000204C00002050000020E4000020AA
:100EB000300100207C01002000BFFEE710B5024891
:100EC00000F00EFD10BD0000C801002010B5024862
:100ED00000F006FD10BD0000C801002001690029D6
:100EE00006DB8269016911600021C269116006E0B8
:100EF00000218269116001694942C269116070472D
:100F0000002182691160C26911607047F0B505ACBB
:100F100070CC00270760476087608561C6614461C7
:100F2000076180ED080AC0ED090A80ED0A0ABC4697
:100F3000C0F834C0C0F830C0C0F82CC0036482646C
:100F4000C163D0F810C0C0F844C0BC46C0F838C077
:100F5000F0BD00001EB59FED2C0AF0EE401A9FED8B
:100F60002B0AB0EE402A9FED2A0AF0EE402A4FF4F9
:100F7000FA642848011F40F23C622346CDE9002173
:100F800002901146B0EE621AF0EE420AB0EE610A2B
:100F90002148FFF7BBFF1F480838011F40F23C62A1
:100FA0002346CDE9002102901146B0EE621AF0EE20
:100FB000420AB0EE610A1948FFF7A8FF1848011F5E
:100FC00040F23C622346CDE9002102901146B0EE8A
:100FD000621AF0EE420AB0EE610A1248FFF796FF7D
:100FE0000F480838011F40F23C622346CDE900213A
:100FF00002901146B0EE621AF0EE420AB0EE610ABB
:101000000948FFF783FF1EBD6666663EAE47E13CBA
:10101000000000004004014098000020E40000208F
:1010200040000140300100207C01002010B52DED72
:101030000A8B0446B0EE408A18EE100AFFF748FA11
:1010400041EC1C0BB0EE4C0AF0EE6C0A05F0C0F956
:10105000B0EE40AAF0EE60AA2046FFF70DFA41EC90
:101060001B0B53EC1A2BFFF795F941EC190BFFF70B
:1010700010FA504908609FED500A38EE000A10EE51
:10108000101A0846FFF724FA41EC1C0BB0EE4C0A8C
:10109000F0EE6C0A05F09CF9B0EE40AAF0EE60AA02
:1010A0002046FFF7E9F941EC1B0B53EC1A2BFFF735
:1010B00071F941EC190BFFF7ECF9404908609FED1D
:1010C000400A38EE000A10EE101A0846FFF700FA40
:1010D00041EC1C0BB0EE4C0AF0EE6C0A05F078F90E
:1010E000B0EE40AAF0EE60AA2046FFF7C5F941EC49
:1010F0001B0B53EC1A2BFFF74DF941EC190BFFF7C3
:10110000C8F9304908609FED300A38EE000A10EE49
:10111000101A0846FFF7DCF941EC1C0BB0EE4C0A44
:10112000F0EE6C0A05F054F9B0EE40BAF0EE60BA99
:101130002046FFF7A1F941EC190B53EC1B2BFFF7ED
:1011400029F941EC1A0BFFF7A4F920490860194965
:101150000868002801DB014600E041420A2902DA62
:1011600000201449086015490868002801DB014681
:1011700000E041420A2902DA0020104908601149C2
:101180000868002801DB014600E041420A2902DA32
:1011900000200C4908600D490868002801DB014661
:1011A00000E041420A2902DA002008490860BDEC4B
:1011B0000A8B10BD20000020DB0F493F24000020D7
:1011C000DB0FC93F28000020E4CB16402C00002094
:1011D00010B50446012C2CD120484268016820300B
:1011E00004F008FB1D4908611D4842680168203071
:1011F00004F000FB1A4908611A484268016820306F
:1012000004F0F8FA1749086117484268016820306D
:1012100004F0F0FA144908611048FFF75FFE104827
:10122000FFF75CFE0F48FFF759FE0F48FFF756FE29
:1012300013E0FFF771FB00200849086008490860C7
:10124000084908600849086000210448816304488F
:101250008163044881630448816310BD98000020C5
:10126000E4000020300100207C01002001460878C5
:1012700010381823B0FBF3F20848805CC865032AD5
:1012800005D908686FF30900001D886503E0086848
:101290006FF309008865886D70470000546E000880
:1012A000014600208A6A8B69CBB932B1012A0DD080
:1012B000022A03D0032A10D10EE000BFCB6A03F04C
:1012C0008073B3F1807F00D1012007E0CB6AB3F1D6
:1012D000C07F00D1012001E000E000BF34E08B6955
:1012E000B3F5005F1AD132B1012A07D0022A03D028
:1012F000032A11D10AE000BF01200EE0CB6A03F0FF
:101300008073B3F1807F00D1012006E0CB6AB3F196
:10131000C07F00D1012000E000BF15E032B1012AFA
:1013200005D0022A04D0032A0CD103E000BF00BF7D
:10133000012008E0CB6A03F08073B3F1807F00D115
:10134000012000E000BF00BF704730B5046824688A
:1013500024F4802405682C60046863608468402C51
:1013600004D10468A2600468E16003E00468A1603D
:101370000468E26030BD70477047000010B5154842
:101380000078642190FBF1F00102124800780A22F3
:1013900090FBF2F090FBF2F302FB130001EB001064
:1013A0000C49097891FBF2F302FB131108440A4936
:1013B0000860012008610948007801F0B9F9084B7C
:1013C000084A0549084800F07AF808B1FFF7D4FF49
:1013D00010BD000048000020F00100204A0000205D
:1013E0001000002005000020C80100202DE9F04178
:1013F000002500260027A846002001F099F90024C6
:1014000014E0012001F094F91D48408805EBA00587
:101410001B48C08906EBA0061948408907EBA007C6
:101420001748C08808EBA008601C84B20A2CE8DBCF
:101430000A20B5FBF0F0134988810A20B6FBF0F0D2
:10144000114988810A20B7FBF0F0104988810A20F1
:10145000B8FBF0F00E4988818C46BCF80C30DFF800
:101460002CC0BCF80C20DFF820C0BCF80C10DFF852
:1014700014C0BCF80C00FFF755FBBDE8F08100007C
:101480002003002098000020E4000020300100200C
:101490007C01002010B5024692F82030012B01D0CB
:1014A000022B06D11068406908431468606100206F
:1014B00010BD506A40F4802050620120F8E7F0B57A
:1014C00004460D461E4694F8207020688368A8687C
:1014D00000B900E000BF012F01D0022F7CD103F042
:1014E000806030B903F0006018B903F08050002824
:1014F00073D0C3F30161022905D9606A40F400008A
:1015000060620120F0BD012088403060A86860B9A9
:10151000B5F800C0E86840EA4C5C206800F5C0708F
:1015200000EB0110C0F800C00FE0D5E901C040EAAF
:10153000CC00D5F80CC040EA0C00D4F800C00CF583
:10154000C07C0CEB011CCCF80000D5F810C0206862
:1015500000F5C07000EB0110C0F804C0287D012820
:101560000ED1206800F5C07000EB0110406840F417
:10157000807C206800F5C07000EB0110C0F804C04A
:10158000D079000692F806C040EA0C4092F805C0F7
:1015900040EA0C2C10794CEA000C206800F5C07071
:1015A00000EB0110C0F80CC0D078000692F802C021
:1015B00040EA0C4092F801C040EA0C2092F800C0CA
:1015C00040EA0C00D4F800C00CF5C07C0CEB011C08
:1015D000CCF80800206801E016E00FE000F5C070CC
:1015E00000EB0110006840F0010C206800F5C070AD
:1015F00000EB0110C0F800C0002083E7606A40F4EF
:101600000010606201207DE7606A40F48020606223
:10161000012077E7F0B504460A46216894F8205087
:10162000012D01D0022D7ED1424901F500710868DB
:1016300040F001000860086820F47C5008600868E9
:10164000566A40EA06200860107D00F01F0601205F
:1016500000FA06F3C8699843C861A1F50071D06922
:10166000C8B9D1F80C029843C1F80C02908880B236
:10167000968940EA064601F51070576940F83760D0
:10168000108880B2168940EA064601F51070576945
:1016900000EBC7004660D069012819D1D1F80C02CF
:1016A0001843C1F80C02908880B2168840EA0646BA
:1016B00001F51070576940F83760908980B216893B
:1016C00040EA064601F51070576900EBC700466016
:1016D000906928B9D1F804029843C1F8040204E0E3
:1016E000D1F804021843C1F80402106928B9D1F8EE
:1016F00014029843C1F8140204E0D1F8140218430C
:10170000C1F81402106A012804D1D1F81C02184350
:10171000C1F81C02D1F8000220F00100C1F800025B
:101720000020F0BDFFE7606A40F480206062012085
:10173000F7E700000064004010B5024692F8203040
:10174000012B01D0022B06D1106840698843146830
:101750006061002010BD506A40F48020506201207A
:10176000F8E7704770B5044694F82050012D01D079
:10177000022D7CD151B92068C06800F0030080B907
:10178000606A40F400106062012070BD206800694A
:1017900000F0030028B9606A40F400106062012084
:1017A000F3E7206800F5D87000EB0110006800F046
:1017B00004009060906840B9206800F5D87000EB94
:1017C00001100068400D106007E0206800F5D87037
:1017D00000EB01100068C0085060206800F5D87068
:1017E00000EB0110006800F002004008D0602068A3
:1017F00000F5D87000EB0110406800F00F00106198
:10180000206800F5D87000EB0110406800F47F40BC
:10181000000A9061206800F5D87000EB0110406864
:10182000000C5061206800F5D87000EB0110806852
:101830001870206800F5D87000EB0110806800F483
:101840007F40000A5870206800F5D87000EB011046
:10185000806800F47F00000C9870206800F5D87054
:1018600000EB01108068000ED870206800E031E0C5
:1018700000F5D87000EB0110C0681871206800F501
:10188000D87000EB0110C06800F47F40000A587166
:10189000206800F5D87000EB0110C06800F47F00EC
:1018A000000C9871206800F5D87000EB0110C0683A
:1018B000000ED87131B92068C06840F02000266859
:1018C000F06005E02068006940F020002668306183
:1018D00000205AE7606A40F480206062012054E7EB
:1018E0002DE9F05F04460025206846692068D0F89D
:1018F0000490206887682068D0F80CA02068D0F891
:1019000010B02068D0F8188006F00100002855D0EB
:1019100007F00100C0B101202168886007F00200D3
:1019200018B1204600F057FD0EE007F0040010B19A
:1019300045F4006508E007F0080010B145F4805553
:1019400002E0204600F046FD07F48070C8B14FF475
:1019500080702168886007F4007018B1204600F09C
:1019600042FD0EE007F4806010B145F4005508E038
:1019700007F4006010B145F4804502E0204600F015
:1019800031FD07F48030C8B14FF4803021688860A1
:1019900007F4003018B1204600F027FD0EE007F4F0
:1019A000802010B145F4004508E007F4002010B194
:1019B00045F4803502E0204600F016FD06F00800F0
:1019C00038B10AF0100020B145F4007510202168EC
:1019D000C86006F0040040B10AF0080028B10820F1
:1019E0002168C860204600F0BFF906F0020038B157
:1019F0002068C06800F0030010B1204600F0B6F97E
:101A000006F0400038B10BF0100020B145F48065BD
:101A100010202168086106F0200040B10BF008009A
:101A200028B1082021680861204600F0A1FC06F0DA
:101A3000100038B12068006900F0030010B12046A2
:101A400000F097FC06F4003040B109F0100028B116
:101A5000102021684860204600F08CFC06F480309D
:101A600040B109F0080028B10820216848602046EC
:101A700000F0BCFC06F4004088B309F0040078B321
:101A800006F4807020B108F0010008B145F00105AE
:101A900006F4007020B108F0020008B145F002051C
:101AA00006F4806020B108F0040008B145F0040598
:101AB00006F40060A0B108F0700088B108F0700072
:101AC000402817D006DC10280BD020280CD0302856
:101AD00019D10CE0502810D0602814D110E01DE07E
:101AE00019E045F008050FE045F010050CE045F061
:101AF000200509E045F0400506E045F0800503E0DB
:101B000045F4807500E000BF00BF2068806920F0C8
:101B10007000216888610420216848602DB1606AE6
:101B2000284360622046FFF71CFEBDE8F09F70B5B9
:101B300004460CB9012070BD94F8200010B920466D
:101B400000F0B0F82068006820F00200216808600A
:101B500000F010FF05460DE000F00CFF401B0A28C6
:101B600008D9606A40F400306062052084F82000E3
:101B70000120E0E72068406800F002000028EBD177
:101B80002068006840F001002168086000F0F2FE63
:101B900005460DE000F0EEFE401B0A2808D9606AF9
:101BA00040F400306062052084F820000120C2E784
:101BB0002068406800F001000028EBD0207E01285A
:101BC00006D12068006840F080002168086005E0C8
:101BD0002068006820F0800021680860607E01288D
:101BE00006D12068006840F040002168086005E0E8
:101BF0002068006820F0400021680860A07E01286D
:101C000006D12068006840F020002168086005E0E7
:101C10002068006820F0200021680860E07E01282C
:101C200006D12068006820F010002168086005E0F7
:101C30002068006840F0100021680860207F0128BB
:101C400006D12068006840F008002168086005E0BF
:101C50002068006820F0080021680860607F012883
:101C600006D12068006840F004002168086005E0A3
:101C70002068006820F0040021680860D4E90201AF
:101C8000084321690843616908436168491E0843A4
:101C90002168C86100206062012084F820000020D3
:101CA00049E7000010B586B00446142101A8FEF7EC
:101CB000BFFA2A49206888424ED100BF0020009018
:101CC0002748006840F080602549086008460068A1
:101CD00000F08060009000BF00BF00BF00200090B7
:101CE0000846006840F0007008600846006800F090
:101CF0000070009000BF00BF00BF00200090184897
:101D00001038006840F00200154910390860084694
:101D1000006800F00200009000BF00BF602001904A
:101D200002200290002003900320049009200590D7
:101D300001A90C4800F010FD00221146402001F0DE
:101D40005BFC402001F048FC002211463F2001F0DE
:101D500053FC3F2001F040FC06B010BD006800407D
:101D600040380240000402407047000010B52DEDDD
:101D7000048B04460020FE490860FE4BFE4A002109
:101D80002046FFF7EFFC08B1FFF7F6FAFA480068C3
:101D900040F20161884219D1F7488068B0B9F6482D
:101DA0000069012812D1F54908700020F449087033
:101DB000F44908701120F4490860FEF7ADFD1120C8
:101DC000F249087048708870C8700871EA48006865
:101DD000012817D1E8488068A0B9E74800690128C0
:101DE00010D1E9480068112807D0E74800680128A9
:101DF00003D0E5480068022804D11120E2490860B8
:101E0000FEF78AFDDC48006840F2015188427DD12E
:101E1000D94880680028FAD1D74800690828F6D147
:101E2000D4480078D349497840EA0120D84908804D
:101E30000846008844F62061884205DD0520D24925
:101E40000860BDEC048B10BDCA488078C949C978C8
:101E500040EA012000EE100AB8EE400ADFEDCD0A9C
:101E600080EE201A9FEDCC0A31EE400ACB4880ED7F
:101E7000000A0068FEF72CFB41EC190BB0EE490A92
:101E8000F0EE690A04F098FAB0EE408AF0EE608A4B
:101E90009FEDC30B53EC102B51EC180BFEF72CFBF2
:101EA00003D20520B8490860CBE7B2480079B149B0
:101EB000497940EA0120BC4908800846008844F678
:101EC0002061884203DD0520AF490860B9E7A948D1
:101ED0008079A849C97940EA012000EE100AF8EE9D
:101EE000400A9FEDAC1A80EE810ADFEDAB0A30EEBE
:101EF000600AAE4880ED000A0068FEF7E9FA41EC9E
:101F0000190BB0EE490AF0EE690A00E046E004F071
:101F100053FAB0EE408AF0EE608A9FEDA10B53ECCD
:101F2000102B51EC180BFEF7E7FA03D20520964967
:101F3000086086E79E480078002830DD9C480078DD
:101F400009282CDA90480068112803D08E480068D0
:101F5000012829D101208C49086095480078002883
:101F60000BDD93480078052807DA8C4890ED000ACD
:101F700087480088FFF75AF806E08C4890ED000A81
:101F800089480088FFF752F88A4803688A4802683F
:101F90008A4801688A480068FEF72EFE04E0112096
:101FA00079490860FEF7B8FC7348006840F20251B6
:101FB00088427DD1704880680028FAD16E48006957
:101FC0000828F6D16B4800786A49497840EA012030
:101FD0006F4908800846008844F62061884203DD86
:101FE0000520694908602CE7624880786149C97812
:101FF00040EA012000EE100AB8EE400ADFED650A63
:1020000080EE201A9FED640A31EE400A634880EDAD
:10201000000A0068FEF75CFA41EC190BB0EE490AC1
:10202000F0EE690A04F0C8F9B0EE408AF0EE608A7A
:102030009FED5B0B53EC102B51EC180BFEF75CFA89
:1020400003D2052050490860FBE64A480079494917
:10205000497940EA0120544908800846008844F63E
:102060002061884203DD052047490860E9E64148D0
:1020700080794049C97940EA012000EE100AB8EEA3
:10208000400A9FED441AC0EE010A9FED430A30EE6C
:10209000C00A464880ED000A0068FEF719FA41ECD4
:1020A000190BB0EE490AF0EE690A04F085F900E078
:1020B00044E0B0EE408AF0EE608A9FED390B53ECBD
:1020C000102B51EC180BFEF717FA03D205202E49FE
:1020D0000860B6E636480078012830DD34480078DC
:1020E0000A282CDA28480068112803D026480068FE
:1020F000012829D10120244908602D4800780128B1
:102100000BDD2B480078062807DA244890ED000AFA
:102110001F480088FEF78AFF06E0244890ED000A79
:1021200021480088FEF782FF22480368224802689F
:102130002248016822480068FEF75EFD04E0112095
:1021400011490860FEF7E8FB0B48006840F20351B4
:10215000884276D1084880680028FAD1064800698C
:1021600008286ED103480078024949782AE0000027
:102170005800002006000020080200200100002076
:10218000000000204B0000204C00002050000020E8
:102190001C00002000401C46DB0F494014000020BA
:1021A00000000020C8EE09401E000020180000209A
:1021B0004A0000202C0000202800002024000020DD
:1021C0002000002040EA01205E490880084600887F
:1021D00044F62061884203DD05205B49086030E653
:1021E0005A4880785949C97840EA012000EE100A1F
:1021F000B8EE400A5FED190A80EE201A1FED1A0AA8
:1022000031EE400A524880ED000A0068FEF760F99E
:1022100041EC190BB0EE490AF0EE690A04F0CCF873
:10222000B0EE408AF0EE608A1FED230B53EC102BCA
:1022300051EC180BFEF760F904D205204249086002
:10224000FFE576E0414800794049497940EA0120BC
:10225000404908800846008844F62061884203DD32
:10226000052039490860ECE5384880793749C97953
:1022700040EA012000EE100AB8EE400A5FED3B0A8A
:1022800080EE201A1FED3C0A31EE400A324880ED04
:10229000000A0068FEF71CF941EC190BB0EE490A80
:1022A000F0EE690A04F088F8B0EE408AF0EE608A39
:1022B0001FED450B53EC102B51EC180BFEF71CF9DE
:1022C00003D2052020490860BBE524480078022895
:1022D00030DD224800780B282CDA1B4800681128D2
:1022E00003D019480068012829D101201649086047
:1022F0001A48007802280BDD18480078072807DA0A
:10230000134890ED000A0F480088FEF78FFE06E0A4
:10231000114890ED000A0F480088FEF787FE10482C
:102320000368104802681048016810480068FEF70A
:1023300063FC04E0112004490860FEF7EDFA00BFD9
:102340007FE500001C0000204C000020060000205B
:10235000140000201E000020180000204A00002069
:102360002C00002028000020240000202000002055
:1023700070477047704770B5044694F820000128F4
:1023800022D1022084F820002068006820F001009B
:102390002168086000F0EEFA05460DE000F0EAFA68
:1023A000401B0A2808D9606A40F4003060620520AA
:1023B00084F82000012070BD2068406800F0010012
:1023C0000028EBD16062F6E7606A40F400206062AA
:1023D0000120F0E7704710B5044601212046FFF7C1
:1023E000ABF910BD7047704770477047704770B5C4
:1023F00003460024002500BF5879012801D102209E
:1024000070BD0120587100BF02201871186804685F
:1024100040F6FE7090408443D1E9000640EA06058C
:1024200005FA02F004431868046018680668C020C2
:1024300090408643186806600120187100BF002094
:10244000587100BF00BFDBE710B504460CB901208E
:1024500010BD207920B900206071204600F008F8F6
:102460000220207100202061012020710020EFE770
:1024700010B586B00446142101A8FDF7D9FE19490C
:10248000206888422BD100BF0020009016480068C9
:1024900040F00050144908600846006800F0005001
:1024A000009000BF00BF00BF002000900E48103811
:1024B000006840F001000C491039086008460068C7
:1024C00000F00100009000BF00BF30200190032009
:1024D00002900020039001A9044800F03DF906B0E5
:1024E00010BD00000074004040380240000002406F
:1024F00030B502460023002400BF5079012801D1E5
:10250000022030BD0120507100BF02201071106800
:10251000006801258D4028431568286091B910682E
:10252000006800F004031068006800F03804042B11
:102530001CD1382C1AD11068406840F00100156891
:10254000686013E01068006800F480231068006879
:1025500000F46014B3F5802F08D1B4F5601F05D1E5
:102560001068406840F00200156868600120107132
:1025700000BF0020507100BF00BFC2E7014691F8C4
:102580003500022803D080204865012070470520CF
:1025900081F835000868006820F001000A681060C2
:1025A0000020F3E72DE9F0410446002500F0E2F9B0
:1025B000074614B90120BDE8F081606A00B100BF90
:1025C00000BF002084F8340000BF022084F83500EA
:1025D0002068006820F00100216808600AE000F02F
:1025E000C9F9C01B052805D920206065032084F89F
:1025F0003500E0E72068006800F001000028EED117
:102600002068056821480540D4E901010843E168D4
:1026100008432169084361690843A1690843E169E6
:102620000843216A08430543606A042803D1D4E9BA
:102630000B0108430543206805602068456925F0C3
:102640000705606A0543606A04280DD1A06A054346
:10265000E06A48B12046FEF723FE28B140206065BD
:10266000012084F83500A6E7206845612046FEF782
:10267000FDFD064694F85C103F208840B0600020C5
:102680006065012084F83500002094E73F8010F059
:102690002DE9F04704460D4616461F464FF0000848
:1026A000D4F8589000BF94F83400012802D10220D9
:1026B000BDE8F087012084F8340000BF94F83500AD
:1026C00001282BD1022084F83500002060653B46AC
:1026D000324629462046FEF738FE94F85C103F202B
:1026E0008840C9F808002068006840F0160021689A
:1026F00008602068406940F0800021684861206CD3
:1027000028B12068006840F008002168086020684F
:10271000006840F001002168086006E000BF00206A
:1027200084F8340000BF4FF002084046C0E70000C4
:1027300070B5044600F01EF906462546681C10B127
:1027400004480078054400BF00F014F9801BA8423B
:10275000FAD370BD8C000020F8B502460B46002568
:10276000002400200021DCE0012606FA01F51E68A5
:1027700006EA0504AC4273D15E68022E02D05E68A0
:10278000122E13D1CF0802F1200656F827004E076B
:10279000F70E0F26BE40B0434F07FF0E1E69BE4026
:1027A0003043CF0802F1200646F8270010684F009A
:1027B0000326BE40B0431E7906F003064F00BE401C
:1027C000304310605E68012E08D05E68022E05D08E
:1027D0005E68112E02D05E68122E13D190684F00F1
:1027E0000326BE40B0434F00DE68BE4030439060D9
:1027F000506801268E40B0431E79C6F300168E4005
:1028000030435060D0684F000326BE40B0434F00B5
:102810009E68BE403043D0605E6806F08056B6F1D8
:10282000805F7DD100BF00260096404E366846F49A
:1028300080463E4F3E603E46366806F4804600962F
:1028400000BF00BF3A4E8F0856F827008E07370F9B
:102850000F26BE40B043374EB24202D1002624E0DC
:102860005EE0354EB24201D101261EE0334EB24247
:1028700001D1022619E0324EB24201D1032614E002
:10288000304EB24201D104260FE02F4EB24201D1A8
:1028900005260AE02D4EB24201D1062605E02C4E57
:1028A000B24201D1072600E008268F073F0FBE4045
:1028B00030431F4E8F0846F82700264E3068A0434D
:1028C0005E6806F48036B6F5803F00D12043214E85
:1028D0003060361D3068A0435E6806F40036B6F5F9
:1028E000003F00D120431B4E361D3060361D30683E
:1028F000A0435E6806F48016B6F5801F00D1204321
:10290000144E08363060361D3068A0435E6806F409
:102910000016B6F5001F00D120430E4E0C36306075
:10292000491C1029FFF420AFF8BD000044380240D4
:102930000838014000000240000402400008024044
:10294000000C024000100240001402400018024037
:10295000001C0240003C0140024613690B400BB1D1
:10296000012000E0002070470AB1816101E00B0402
:1029700083617047014800687047000084000020B0
:1029800010B586B004462068806805908B492068A1
:10299000884201D18A4801E04FF0402080680490CD
:1029A00020684068039085492068884201D18448A6
:1029B00001E04FF04020406802906068B0F5007F71
:1029C00002D0606800286FD1059800F0020002284C
:1029D00006D1039800F0800010B1204602F074F98F
:1029E000049800F0010030B1029800F0400010B1EE
:1029F000204602F033F9049800F04000402832D11C
:102A0000029800F0200070B36C492068884201D120
:102A10006B4801E04FF04020406820F06000674ABA
:102A20002168914201D1664901E04FF040214860A0
:102A30002068406820F0A0002168486000BF0020A6
:102A400001902068C068019020688068019000BFF4
:102A500000BF012084F84100606C40F00200606417
:102A6000204600F0B3FB059800F00800082831D19B
:102A7000039800F0200000282CD02068406820F047
:102A8000A000216848604D492068884201D14C4827
:102A900001E04FF04020406820F06000474A216884
:102AA000914202D1464902E015E04FF040214860D2
:102AB00000BF0020019020688068019000BF00BF27
:102AC000012084F84100606C40F0040060642046FE
:102AD00000F07CFB70E0049800F00200022806D1B0
:102AE000029800F0800010B1204602F009F9059824
:102AF00000F0010030B1039800F0400010B1204612
:102B000002F08EF8059800F04000402827D1039885
:102B100000F0200018B32068406820F060002168B1
:102B2000486026492068884201D1254801E04FF0DD
:102B30004020406820F0A000204A2168914201D145
:102B40001F4901E04FF040214860012084F8410016
:102B5000606C40F002006064204600F037FB04988F
:102B600000F00800082827D1029800F0200018B3D0
:102B700012492068884201D1114801E04FF04020FD
:102B8000406820F0A0000D4A2168914201D10C4913
:102B900001E04FF0402148602068406820F060006C
:102BA00021684860012084F84100606C40F0040016
:102BB0006064204600F00AFB06B010BD00380040FB
:102BC000003400402DE9F84F04460D4617461E46D6
:102BD000DDF828904FF00008C24694F84100012823
:102BE00002D04FF0020AA3E10DB107B116B90120DE
:102BF000BDE8F88F00BF94F84000012801D1022001
:102C0000F6E7012084F8400000BF2068C06900F0AA
:102C10000708B8F1030F02D0B8F1050F14D14FF631
:102C2000FF7000EA460020854FF6FF7000EA46007C
:102C300060854FF6FF7000EA460020864FF6FF7071
:102C400000EA4600608603E026856685268666865D
:102C500000206064052084F841002068C06900F409
:102C60004078B8F5007F02D0B8F1000F7ED135F87A
:102C7000020B2168C860608D401E6085B1492068E4
:102C8000884201D1B04801E04FF04020C06940F4D3
:102C90008060AC4A2168914201D1AB4901E04FF01C
:102CA0004021C8612068C06940F480602168C86123
:102CB0002068C06900F44070B0F5007F18D100BFF3
:102CC000002000909F492068884201D19E4801E081
:102CD0004FF04020C06800909A492068884201D196
:102CE000994801E04FF040208068009000BF00BF8D
:102CF00069E0608D50B300204B4601220221009014
:102D0000204601F033FF30B1606C40F00100606498
:102D10004FF0010A0CE135F8020B2168C860608DA4
:102D2000401E608520688068C0F3C00070B1B8F1B3
:102D3000000F0BD100BF0020009020688068009039
:102D400000BF00BF606C40F004006064608ED0B3D0
:102D500001204B46024601460090204601F006FF46
:102D600040B1606C40F00100606400E032E04FF080
:102D7000010ADDE073492068884201D1724801E010
:102D80004FF04020C06827F8020B608E401E60861E
:102D90006C492068884201D16B4801E04FF0402027
:102DA0008068C0F3801070B100BF002000902068E0
:102DB000C068009020688068009000BF00BF606C11
:102DC00040F002006064608E002892D1608D00287F
:102DD0008FD1A8E028885B4A2168914201D15A49E5
:102DE00001E04FF04021C860AD1C608D401E608541
:102DF00054492068884201D1534801E04FF04020F7
:102E0000C06940F480604F4A2168914201D14E4927
:102E100001E04FF04021C8612068C06940F4806043
:102E20002168C8612068C06900F44070B0F5407F37
:102E30000AD100BF002000902068C0680090206880
:102E40008068009000BF00BF67E0608DC0B30120C4
:102E50004B46024602210090204601F087FE30B129
:102E6000606C40F0010060644FF0010A60E0288867
:102E7000344A2168914201D1334901E04FF04021A9
:102E8000C860AD1C608D401E60852E492068884258
:102E900001D12D4801E04FF040208068C0F3C00010
:102EA00070B1B8F5807F0BD100BF00200090206882
:102EB0008068009000BF00BF606C40F00400606458
:102EC000608E50B300204B460122114600902046F0
:102ED00001F04CFE30B1606C40F0010060644FF0D6
:102EE000010A25E02068C06827F8020B608E401EAA
:102EF000608620688068C0F3801070B100BF002039
:102F000000902068C068009020688068009000BF32
:102F100000BF606C40F002006064608E002894D1B5
:102F2000608D002891D1606C08B14FF0010A00BF9C
:102F3000012084F8410000BF002084F8400000BF59
:102F4000504655E600380040003400402DE9FF436C
:102F500081B004461D4600260027B04694F8410083
:102F6000012802D04FF002081CE1029810B103982A
:102F700000B11DB9012005B0BDE8F08300BF94F891
:102F80004000012801D10220F5E7012084F840002B
:102F900000BF029860620398E0622068C06900F098
:102FA0000707032F01D0052F14D14FF6FF7000EA59
:102FB000450020854FF6FF7000EA450060854FF61A
:102FC000FF7000EA450020864FF6FF7000EA4500DA
:102FD000608603E02585658525866586002060641A
:102FE000052084F841007348E16B08647248E16B86
:102FF000C8637248E16BC8646E48A16B08646E4890
:10300000A16BC8636D48A16BC8642068C06900F4F7
:103010004077B7F5007F01D0002F58D103AE238E43
:103020003268DFF89C91D4F800C0CC4502D1DFF8BB
:1030300094C101E04FF0402C0CF10C01E06BFFF764
:1030400027FB5F492068884201D15E4801E04FF0CC
:103050004020406840F00100594A2168914201D166
:10306000584901E04FF04021486002AE238DD4F86A
:1030700000C00CF10C023168A06BFFF709FB20685F
:10308000406840F00200216848602068C06900F490
:103090008060B0F5806F19D049492068884201D11D
:1030A000484801E04FF04020C06940F48060444A45
:1030B0002168914201D1434901E04FF04021C861AC
:1030C0002068C06940F480602168C86169E02068B8
:1030D000C06900F44070B0F5407F0AD100BF002005
:1030E00000902068C068009020688068009000BF51
:1030F00000BF02AE238DDFF8C890D4F800C0CC45E5
:1031000002D1DFF8C0C001E04FF0402C0CF10C02FE
:103110003168A06BFFF7BCFA29492068884201D1C9
:10312000284801E04FF04020406840F00200244A67
:103130002168914201D1234901E04FF040214860CC
:1031400003AE238E3268D4F800C00CF10C01E06BA2
:10315000FFF79EFA2068406840F00100216848604F
:103160002068C06900F48060B0F5806F19D0144900
:103170002068884201D1134801E04FF04020C06927
:1031800040F480600E4A2168914201D10D4901E06E
:103190004FF04021C8612068C06940F48060216818
:1031A000C86100BF00BF002084F8400000BF404657
:1031B000E1E60000B54E00086D4D0008554E0008D0
:1031C00000380040003400407047704770470000EE
:1031D0002DE9F047044614B90120BDE8F08794F8C2
:1031E000410038B9002084F84000674860632046F9
:1031F00000F0D2F8022084F841002068C06940F64F
:10320000BF7188432168C861022021680862606933
:1032100002283CD0E06808B9102600E02026A0680B
:10322000202800D87600012000F0ACFA8046206902
:10323000B0F5007F17D1E06850B1B000B8FBF0F0F6
:1032400000EB800041006069B1FBF0F0451D13E028
:10325000F000B8FBF0F000EB800041006069B1FBCA
:10326000F0F0451D08E0B8FBF6F000EB80004100EF
:103270006069B1FBF0F0451D0A20B5FBF0F505F0E3
:103280000109A5EB090047084FEA092902E00227D6
:103290004FF0000903274FF00109022F01D3FF2F40
:1032A00005D9606C40F010006064012095E720694A
:1032B00040EA0900384321680862606840F4006011
:1032C000A1680843E1680843A16908432168C96906
:1032D00040F6BF72914308432168C861206A012803
:1032E0004AD12A4860632A492068884201D1294886
:1032F00001E04FF04020C06940F6BF718843244A86
:103300002168914201D1234901E04FF04021C86179
:1033100002201F4A2168914201D11E4901E04FF06D
:10332000402108621A492068884201D1194801E009
:103330004FF04020C0691FFA80FA6068B0F5007F46
:1033400001D0606810B94FF4807500E00025A089B5
:10335000218B084321890843284380B240F4006050
:1033600040EA0A0A0A492068884201D1094801E076
:103370004FF04020C0F81CA000206064012084F8B9
:103380004100002029E70000C34E00088129000801
:10339000003800400034004010B586B004461421C7
:1033A00001A8FCF745FF4B49206888427ED100BF49
:1033B000002000904848006840F48040464908607A
:1033C0000846006800F48040009000BF00BF00BFC6
:1033D0000020009040481038006840F002003E494C
:1033E000103908600846006800F00200009000BF35
:1033F00000BF4FF430400190022002900020039063
:10340000032004900520059001A93448FFF7A4F992
:103410004FF480400190022002900020039003208E
:1034200004900620059001A92C48FFF795F92C4837
:103430002C4908600020486040212A488160002112
:10344000C1604FF48061016149004161890081617F
:103450004911C1610021016204214162032181629D
:103460004FF08071C1620163FFF79CF808B1FDF76E
:1034700083FF00BF1B48A063846300BF184818384F
:10348000194908604FF0C06048600021164881600B
:10349000C1604FF48061016149004161890081612F
:1034A0004911C16100210162042100E010E0416284
:1034B000032181624FF08071C1620163FFF772F8EE
:1034C00008B1FDF759FF00BF0748E063846300BF00
:1034D00006B010BD003800404038024000040240F1
:1034E0007060024078030020D803002070477047C6
:1034F0000348006803490978084401490860704797
:10350000840000208C00002010B50D48006840F4B5
:1035100000700B4908600846006840F4806008604D
:103520000846006840F480700860032000F0A2F8AC
:10353000002000F007F800F02BF8002010BD00007C
:10354000003C024070B504460E4800784FF47A7192
:10355000B1FBF0F00C490968B1FBF0F5284600F02A
:1035600091FD08B1012070BD102C07D20022214628
:10357000501E00F041F80548046001E00120F2E728
:103580000020F0E78C000020900000208800002040
:1035900008B500BF002000900E48006840F480404D
:1035A0000C4908600846006800F48040009000BFA5
:1035B00000BF00BF00200090081F006840F080504E
:1035C000091F08600846006800F08050009000BFA6
:1035D00000BF08BD4438024001460846002809DB08
:1035E00000F01F0301229A4043099B0003F1E023EE
:1035F000C3F8002100BF70472DE9F05F80460D46FB
:103600001646002702F0BCFE074639462A463346D6
:1036100001F00700C0F1070ABAF1040F02D94FF018
:10362000040A01E0C0F1070AD14600F1040ABAF128
:10363000070F02D24FF0000A01E0A0F1030AD446BE
:103640004FF0010A0AFA09FAAAF1010A0AEA020A83
:103650000AFA0CFA4FF0010B0BFA0CFBABF1010B61
:103660000BEA030B4AEA0B042146404602F090FEA7
:10367000BDE8F09F00BF00F00702064B19684FF647
:10368000FF031940044B0B4343EA0221014B19602D
:1036900000BF70470CED00E00000FA052A490968F8
:1036A00021F0E00102681143274A116027490968A7
:1036B00021F48031254A1160111F096821F48031FD
:1036C000121F11602149091D096821F480311F4A28
:1036D000121D1160111D096821F48031121D116045
:1036E000416801F48031B1F5803F07D11749091FC6
:1036F000096841F48031154A121F1160416801F4D4
:103700000031B1F5003F05D11049096841F480311D
:103710000E4A1160017901F0010139B10B49091D0F
:10372000096841F48031094A121D1160017901F0E4
:103730000201022907D105490831096841F48031A5
:10374000024A08321160704700700040043C01409A
:10375000012001490861704700000E4210B5FDF7D5
:10376000DBF810BD10B50648006800F4803028B1C1
:10377000FFF7F4FF4FF480300149086010BD0000EE
:10378000143C014070B501460020002200230024B3
:10379000012934D11B4D2D6805F400031BB1012B09
:1037A00029D1194829E0174D2D1F2D6805F48005F2
:1037B000B5F5800F08D1134D2D1F2D6805F03F057D
:1037C000124EB6FBF5F207E00E4D2D1F2D6805F0E9
:1037D0003F050F4EB6FBF5F20A4D7C352D68C5F35B
:1037E000881505FB02F4074D7C352D68C5F302757D
:1037F000B4FBF5F001E0002000BF00BF00BF00BF38
:1038000070BD0000083802400080BB0000127A0042
:103810000024F400F8B5044600250026207800F0C6
:10382000010020B9207800F0040004282FD10020E6
:103830005B498866FFF79EF8054606E0FFF79AF8B1
:10384000401B022801D90320F8BD56480068C0F388
:10385000C0600028F2D160688101207A41EA0070DE
:1038600050498431086001204D498866FFF782F88D
:10387000054606E0FFF77EF8401B022801D9032029
:10388000E2E748480068C0F3C0600028F2D0207822
:1038900000F0020002287DD100BF002000904148C6
:1038A0004030006840F080503E4940310860084692
:1038B000006800F08050009000BF00BF3A480068E8
:1038C00040F4807038490860FFF754F8054606E078
:1038D000FFF750F8401B022801D90320B4E7324813
:1038E000006800F480700028F2D02E487030006824
:1038F00000F440764EB3A08900F44070B04224D06A
:1039000028487030006820F440760120274908607C
:1039100000200860234870300660006800F0010055
:1039200098B1FFF727F8054608E0FFF723F8401B9A
:1039300041F28831884201D9032085E71948703067
:103940000068C0F340000028EFD000BFA08900F459
:103950004070B0F5407F0CD112480830006820F468
:10396000F810134AE168114008430E490831086015
:1039700007E00C480830006820F4F81009490831C5
:103980000860084870300068A189C1F30B01084342
:10399000044900E002E07031086000BF002053E7F6
:1039A000000047420038024000700040400E47428D
:1039B000FFFCFF0F70B504460D460CB9012070BD29
:1039C0005848006800F00F00A84209D255490D7010
:1039D0000846006800F00F00A84201D00120EEE781
:1039E000207800F0020002281DD1207800F00400A9
:1039F000042805D14C48006840F4E0504A4908606A
:103A0000207800F00800082805D14748006840F4F5
:103A10006040454908604448006820F0F000A16813
:103A2000084341490860207800F00100A8B36068AD
:103A3000012807D13C4808380068C0F34040B8B9B5
:103A40000120BCE76068022802D06068032807D123
:103A5000354808380068C0F3406048B90120AEE737
:103A6000314808380068C0F3400008B90120A6E7D3
:103A70002D48006820F00300616808432A49086067
:103A8000FEF778FF064609E0FEF774FF801B41F25F
:103A90008831884202D9032091E707E02248006874
:103AA00000F00C006168B0EB810FEDD11D4800689B
:103AB00000F00F00A84209D91A490D7008460068A5
:103AC00000F00F00A84201D0012078E7207800F034
:103AD0000400042807D11448006820F4E050E1688D
:103AE000084311490860207800F00800082808D130
:103AF0000D48006820F46040216940EAC1000A498D
:103B0000086000F043F808490968C1F30311074A47
:103B1000515CC840064908600020FFF713FD0020F3
:103B20004DE70000003C0240083802405C6E00088F
:103B30009000002001200149C864704700004742FE
:103B400001480068704700009000002000B5FFF7B2
:103B5000F7FF04490968C1F38221034A515CC84058
:103B600000BD0000083802406C6E000800B5FFF789
:103B7000E7FF04490968C1F34231034A515CC84078
:103B800000BD0000083802406C6E00082DE9F047C7
:103B9000002400250026A1462548006800F00C00FE
:103BA00020B1042805D008283AD105E0DFF8849038
:103BB00039E0DFF8849036E01D48001F006800F00F
:103BC0003F041B48001F006800F4800078B11A48C9
:103BD0001749091F0968C1F38811A0FB017001464C
:103BE000224600233846FCF7EBFA05460EE0114862
:103BF0000F49091F0968C1F38811A0FB0170014634
:103C0000224600233846FCF7DBFA05460848001F29
:103C10000068C0F30140401C4600B5FBF6F902E025
:103C2000DFF8109000BF00BF4846BDE8F0870000F5
:103C3000083802400024F40000127A00F8B5044667
:103C40000CB90120F8BD207800F00100002874D0E4
:103C5000F948006800F00C0004280DD0F648006810
:103C600000F00C00082813D1F348001F006800F48E
:103C70008000B0F5800F0BD1EF4808380068C0F322
:103C80004040002859D06068002856D10120D9E76B
:103C900000BF6068B0F5803F08D1E7480838006889
:103CA00040F48030E449083908601EE06068B0F5EF
:103CB000A02F0DD1E0480838006840F48020DE498C
:103CC000083908600846006840F4803008600CE05D
:103CD000D9480838006820F48030D749083908608E
:103CE0000846006820F48020086000BF606890B13A
:103CF000FEF740FE054606E0FEF73CFE401B64284A
:103D000001D903209EE7CC4808380068C0F3404042
:103D10000028F1D011E0FEF72DFE054606E0FEF783
:103D200029FE401B642801D903208BE7C2480838CC
:103D30000068C0F340400028F1D1207800F0020074
:103D400002285FD1BC48006800F00C0058B1BA48A6
:103D5000006800F00C0008281CD1B748001F00685C
:103D600000F48000B0B9B44808380068C0F34000DF
:103D700020B1E068012801D0012063E7AE4808388F
:103D8000006820F0F800216940EAC100AA4908391A
:103D9000086037E0E06800B30120A8490860FEF73A
:103DA000E9FD054606E0FEF7E5FD401B022801D9C6
:103DB000032047E7A04808380068C0F34000002807
:103DC000F1D09D480838006820F0F800216940EAE9
:103DD000C10099490839086014E00020974908603B
:103DE000FEF7C8FD054606E0FEF7C4FD401B0228AD
:103DF00001D9032026E7904808380068C0F3400046
:103E00000028F1D1207800F0080008282CD1606942
:103E1000A8B101208A490860FEF7ACFD054606E01E
:103E2000FEF7A8FD401B022801D903200AE78248BB
:103E30006C300068C0F340000028F1D014E000208E
:103E40007F490860FEF796FD054606E0FEF792FD05
:103E5000401B022801D90320F4E677486C30006843
:103E6000C0F340000028F1D1207800F004000428BD
:103E700070D1002670483830006800F0805090B94A
:103E800000BF002000906C483830006840F080503F
:103E90006949383108600846006800F08050009099
:103EA00000BF00BF01266748006800F48070B0B909
:103EB0006448006840F4807062490860FEF75AFD6B
:103EC000054606E0FEF756FD401B022801D90320F7
:103ED000B8E65C48006800F480700028F2D000BFAB
:103EE000A068012808D154486830006840F00100FB
:103EF0005149683108601DE0A06805280DD14E4881
:103F00006830006840F004004B496831086008469A
:103F1000006840F0010008600CE047486830006825
:103F200020F001004449683108600846006820F02C
:103F30000400086000BFA068A8B1FEF71BFD05469D
:103F400009E0FEF717FD401B41F28831884202D993
:103F5000032077E626E0384868300068C0F3400068
:103F60000028EED013E0FEF705FD054608E0FEF759
:103F700001FD401B41F28831884201D9032061E6EE
:103F80002D4868300068C0F340000028EFD1012EB2
:103F900007D129483830006820F080502649383150
:103FA000086000BFA069B8B32348006800F00C00A7
:103FB00008285ED0A069022846D100201F49086663
:103FC000FEF7D8FC054606E0FEF7D4FC401B0228AD
:103FD00001D9032036E6184808380068C0F340606D
:103FE0000028F1D1D4E907010843616A40EA811150
:103FF0000122A06AC2EB500041EA00412C20005D82
:1040000041EA00600C49091F086001200B4908665D
:10401000FEF7B0FC054607E02DE0FEF7ABFC401BC9
:10402000022801D903200DE6034808380068C0F3D0
:1040300040600028F1D01EE00838024000004742EE
:10404000800E47420070004000200C490866FEF7D1
:1040500091FC054606E0FEF78DFC401B022801D9C5
:104060000320EFE506480068C0F340600028F2D165
:1040700001E00120E6E50020E4E500000000474201
:104080000038024070B504462546681EB0F1807FB6
:1040900001D301200FE0681E4FF0E02148610F219D
:1040A0004FF0FF3002F074F900204FF0E0218861FA
:1040B00007200861002070BD7047704710B50346A7
:1040C000002200BF93F83C00012801D1022010BD5E
:1040D000012083F83C0000BF22F0FF00CC6840EADA
:1040E000040222F440708C6840EA040222F48060EA
:1040F0004C6840EA040222F400600C6840EA0402C2
:1041000022F480500C6940EA040222F400504C6909
:1041100040EA040222F48040CC6940EA04021868B4
:10412000426400BF002083F83C0000BF00BFCEE720
:1041300010B5024600BF92F83C00012801D10220D0
:1041400010BD012082F83C0000BF022082F83D0033
:10415000106843681068846823F07003086803439C
:1041600024F0800448680443106843601068846049
:10417000012082F83D0000BF002082F83C0000BF13
:1041800000BFDDE710B504460CB9012010BD94F85E
:104190003D0028B9002084F83C00204600F00CF8CF
:1041A000022084F83D00211D206801F0CDFC012093
:1041B00084F83D000020E9E738B504462549206829
:1041C00088420FD100BF002000902348006840F0D3
:1041D0000100214908600846006800F001000090D5
:1041E00000BF35E02068B0F1804F1DD100BF002036
:1041F00000901948001F006840F001001649091F8F
:1042000008600846006800F00100009000BF00BF91
:10421000002211461C20FFF7EFF91C20FFF7DCF904
:10422000204600F01DF813E00C49206888420FD1A9
:1042300000BF002000900848006840F002000649D6
:1042400008600846006800F00200009000BF00BF50
:1042500038BD000000000140443802400004014025
:1042600001460868C06840F001000B68D860086823
:10427000806800F00702062A05D00868006840F050
:1042800001000B681860002070472DE9F0410446DA
:104290000D4600BF94F83C00012802D10220BDE881
:1042A000F081012084F83C0000BF022084F83D002A
:1042B0002068866826F0770626F47F4620688660A8
:1042C0002868502833D00CDC202850D004DC00288B
:1042D0004BD0102851D149E0302849D040284CD14A
:1042E00039E060282DD0702807D0B0F5805F03D06A
:1042F000B0F5005F41D10DE040E0D5E902136A68F6
:10430000206801F09EFC2068866846F077062068E9
:10431000866033E0D5E902136A68206801F091FCF9
:104320002068806840F480402168886026E0EA6860
:104330006968206801F076FD5021206801F08CFC4E
:104340001CE0EA686968206801F07FFD6021206850
:1043500001F082FC12E0EA686968206801F062FD01
:104360004021206801F078FC08E000BF00BF00BFDA
:104370002968206801F070FC00E000BF00BF012048
:1043800084F83D0000BF002084F83C0000BF00BF5F
:1043900085E7704710B5044620680069C0F3400007
:1043A000D8B12068C068C0F34000B0B16FF002001F
:1043B00021680861012020772068806900F00300EF
:1043C00018B12046FFF7E5FF05E0204600F02AF986
:1043D000204600F0C7F90020207720680069C0F36C
:1043E0008000D8B12068C068C0F38000B0B16FF021
:1043F000040021680861022020772068806900F4A9
:10440000407018B12046FFF7C4FF05E0204600F0D9
:1044100009F9204600F0A6F90020207720680069FD
:10442000C0F3C000D8B12068C068C0F3C000B0B10C
:104430006FF0080021680861042020772068C069B7
:1044400000F0030018B12046FFF7A3FF05E0204667
:1044500000F0E8F8204600F085F900202077206879
:104460000069C0F30010D8B12068C068C0F3001024
:10447000B0B16FF010002168086108202077206833
:10448000C06900F4407018B12046FFF782FF05E0D4
:10449000204600F0C7F8204600F064F9002020779D
:1044A0002068006900F0010058B12068C06800F081
:1044B000010030B16FF0010021680861204600F072
:1044C0007FF920680069C0F3C01058B12068C06847
:1044D000C0F3C01030B16FF0800021680861204641
:1044E000FFF7EAFD20680069C0F3801058B120682A
:1044F000C068C0F3801030B16FF0400021680861DF
:10450000204600F08FF920680069C0F3401058B1D0
:104510002068C068C0F3401030B16FF020002168FF
:1045200008612046FFF7C9FD10BD000010B586B038
:104530000446142101A8FBF77BFE3349206888421A
:104540002ED100BF002000903048006840F00100EC
:104550002E4908600846006800F00100009000BF86
:1045600000BF4FF470600190022002900020039081
:1045700004900120059001A92548FEF7EDF80021DF
:10458000244800F0F1F80421224800F0EDF8082159
:10459000204800F0E9F80C211E4800F0E5F831E071
:1045A0001D49206888422DD100BF00200090174887
:1045B000006840F00400154908600846006800F0F3
:1045C0000400009000BF00BF4FF470700190022003
:1045D00002900020039004900320059001A90F4849
:1045E000FEF7BAF800210E4800F0BEF804210C488E
:1045F00000F0BAF808210A4800F0B6F80C21084883
:1046000000F0B2F806B010BD0000014030380240A2
:1046100000000240A0020020000401400008024007
:10462000E0020020704770B504460D46164600BFF4
:1046300094F83C00012801D1022070BD012084F8CB
:104640003C0000BF022084F83D0036B1042E1BD090
:10465000082E31D00C2E5ED145E02946206801F0AD
:1046600005FB2068806940F00800216888612068A7
:10467000806920F0040021688861206880692969C8
:1046800008432168886147E02946206801F026FB3D
:104690002068806940F40060216888612068806932
:1046A00020F480602168886120688069296940EA77
:1046B0000120216888612FE02946206801F04CFB29
:1046C0002068C06940F008002168C8612068C0699E
:1046D00020F004002168C8612068C0692969084386
:1046E0002168C86118E02946206801F071FB206844
:1046F000C06940F400602168C8612068C06920F486
:1047000080602168C8612068C069296940EA012089
:104710002168C86100E000BF00BF012084F83D00AF
:1047200000BF002084F83C0000BF00BF85E710B543
:1047300004460CB9012010BD94F83D0028B90020B2
:1047400084F83C00204600F00CF8022084F83D007C
:10475000211D206801F0F8F9012084F83D000020B7
:10476000E9E770477047000070B504460E46012225
:104770003146206801F054FA0F492068884203D07E
:104780000E492068884201D1012000E0002028B1B4
:104790002068406C40F400402168486420688068CC
:1047A00000F00705062D05D02068006840F00100E4
:1047B00021680860002070BD000001400004014035
:1047C0001CB504461348844222D1FCF721F8124854
:1047D0000068FCF7FDFCFCF7E5F9FCF71FFB0F4850
:1047E0000068401C0D49086042F2107188420FD9E0
:1047F00000200A4908600A48016800918088ADF8E5
:1048000004000548019A0068FCF7AEF8FCF7DEF9F1
:104810001CBD0000600200204C0000203000002081
:1048200050000020704770472DE9F047044620688B
:1048300005682068C668206847694FF00008C146CF
:1048400005F00F08B8F1000F0AD105F0200038B1CB
:1048500006F0200020B1204601F035FBBDE8F087CE
:10486000B8F1000F6ED007F0010018B906F490708F
:10487000002867D005F0010030B106F4807018B14F
:10488000E06B40F00100E06305F0040030B107F098
:10489000010018B1E06B40F00200E06305F0020097
:1048A00030B107F0010018B1E06B40F00400E063A4
:1048B00005F0080030B107F0010018B1E06B40F0DE
:1048C0000800E063E06B70B305F0200028B106F04B
:1048D000200010B1204601F0F6FA20684069C0F3CC
:1048E0008019E06B00F0080010B9B9F1000F23D077
:1048F000204601F0C8FA2068406900F040004028D6
:1049000016D12068406920F0400021684861606B42
:1049100050B11748616B0865606BFDF72FFE10B151
:10492000606B016D88470CE02046FFF77CFF08E0D4
:104930002046FFF778FF04E02046FFF774FF0020D1
:10494000E0638BE705F0800030B106F0800018B11D
:10495000204601F0BFFC81E705F0400030B106F0D1
:10496000400018B1204601F09EFA77E700BF75E7D6
:10497000735E000810B504460CB9012010BDA06993
:1049800000B100E000BF94F8390028B9002084F895
:104990003800204600F028F8242084F839002068E8
:1049A000C06820F400502168C860204601F0DEFA9B
:1049B0002068006920F490402168086120684069FF
:1049C00020F02A00216848612068C06840F4005047
:1049D0002168C8600020E063202084F8390084F852
:1049E0003A000020CAE7000010B586B00446142142
:1049F00001A8FBF71DFC3A492068884238D100BF66
:104A0000002000903748006840F4003035490860C5
:104A10000846006800F40030009000BF00BF00BFEF
:104A2000002000902F481038006840F001002D4908
:104A3000103908600846006800F00100009000BFCF
:104A400000BF0C200190022002900120039003205F
:104A500004900720059001A92348FDF77DFE002260
:104A600011462620FEF7C8FD2620FEF7B5FD34E0EE
:104A70001E492068884230D100BF002000901948AC
:104A8000006840F48020174908600846006800F478
:104A90008020009000BF00BF00BF002000901148A0
:104AA0001038006840F004000E49103908600846CC
:104AB000006800F00400009000BF00BF4FF44060A9
:104AC000019002200290012003900320049007200F
:104AD000059001A90648FDF73FFE06B010BD000095
:104AE00000440040403802400000024000480040BE
:104AF000000802407047704710B5154800786421DF
:104B000090FBF1F00102124800780A2290FBF2F0CB
:104B100090FBF2F302FB130001EB00100C49097843
:104B200091FBF2F302FB131108440A4908600120CB
:104B3000086109480078FDF7FBFD084B084A054964
:104B40000848FCF7BCFC08B1FCF716FC10BD0000DF
:104B500048000020F00100204A0000201000002042
:104B600004000020C801002000BFFEE72DE9F04747
:104B700004460E4617461D46DDF82090FDF7FAFE66
:104B80008046B9F1000F1FD113E0681C88B12DB128
:104B9000FDF7F0FEA0EB0800A8420AD9012084F836
:104BA000410000BF002084F8400000BF0320BDE8A2
:104BB000F087206880683040B04201D1012000E0D9
:104BC0000020B842E1D124E012E0681C80B12DB190
:104BD000FDF7D0FEA0EB0800A84209D9012084F817
:104BE000410000BF002084F8400000BF0320DEE742
:104BF00009492068884201D1084801E04FF040206F
:104C000080683040B04201D1012000E00020B8426D
:104C1000DBD10020CBE7000000380040003400402A
:104C200010B504462068C06881B2E26A901CE06258
:104C30001180608E401E6086608E68B92068406872
:104C400020F0600021684860608D28B9012084F858
:104C500041002046FEF7B8FA10BD000010B504462A
:104C600017492068884201D1164801E04FF04020E2
:104C7000C06881B2E26A901CE0621180608E401EC2
:104C80006086608ED8B90E492068884201D10D48EF
:104C900001E04FF04020406820F06000084A2168A1
:104CA000914201D1074901E04FF040214860608DF9
:104CB00028B9012084F841002046FEF785FA10BD8E
:104CC000003800400034004010B50446616A881C7A
:104CD000606208882168C860608D401E6085608DB4
:104CE00068B92068406820F0A00021684860608EA4
:104CF00028B9012084F841002046FEF765FA10BD6E
:104D000010B50446616A881C60620888154A2168EB
:104D1000914201D1144901E04FF04021C860608DFB
:104D2000401E6085608DD8B90E492068884201D147
:104D30000D4801E04FF04020406820F0A000094AF3
:104D40002168914201D1084901E04FF040214860BB
:104D5000608E28B9012084F841002046FEF734FA1D
:104D600010BD0000003800400034004070B505461A
:104D7000AC6BE869002867D1E06BA84230D12068AD
:104D8000C06900F44070B0F5007F04D02068C069AD
:104D900000F44070A0B92D492068884201D12C4808
:104DA00001E04FF04020406820F00100274A2168D0
:104DB000914201D1264901E04FF04021486005E0D1
:104DC0002068406820F0010021684860002060866B
:104DD000608D28B9012084F841002046FEF7F4F9DF
:104DE000A06BA84230D12068C06900F44070B0F5D3
:104DF000007F04D02068C06900F4407030B920689A
:104E0000406820F002002168486013E00F492068E4
:104E1000884201D10E4801E04FF04020406820F068
:104E200002000A4A2168914201D1094901E04FF08C
:104E30004021486000206085608E28B9012084F8F8
:104E400041002046FEF7C0F970BD00000038004068
:104E50000034004070B50546AC6B2068406820F017
:104E600003002168486011492068884201D1104838
:104E700001E04FF04020406820F003000B4A216819
:104E8000914201D10A4901E04FF0402148600020E1
:104E900060856086012084F84100606C40F0080065
:104EA00060642046FEF792F970BD000000380040B3
:104EB0000034004070B50446A56B2846FEF785F91E
:104EC00070BD1CB5044620688068019094F84100CC
:104ED000042830D1019800F0010038B12068406802
:104EE000C0F3801010B1204600F059F8019800F08E
:104EF000400040281FD120684068C0F34010D0B166
:104F00002068406820F060002168486000BF0020F1
:104F100000902068C068009020688068009000BF02
:104F200000BF012084F84100606C40F00200606422
:104F30002046FEF74BF994F8410003282ED1019842
:104F400000F00200022807D120684068C0F3C010BA
:104F500010B1204600F03EF8019800F00800082843
:104F60001CD120684068C0F34010B8B12068406888
:104F700020F0A0002168486000BF00200090206859
:104F80008068009000BF00BF012084F84100606C81
:104F900040F0040060642046FEF718F91CBD10B50F
:104FA00004462068C068E16A0880E06A801CE0620C
:104FB000608E401E6086608E58B92068406820F080
:104FC000600021684860012084F841002046FEF717
:104FD0008DFA10BD10B50446606A00882168C8606B
:104FE000606A801C6062608D401E6085608D58B96B
:104FF0002068406820F0A00021684860012084F803
:1050000041002046FEF773FA10BD000010B50122E2
:1050100051031148FDF7A8FC012291030E48FDF74A
:10502000A3FC0122D1030C48FDF79EFC012211468E
:105030000948FDF799FC012202210748FDF794FC7D
:10504000012204210448FDF78FFC012208210248B7
:10505000FDF78AFC10BD00000008024070B5044650
:105060000E461546705D28B1002221460448FDF722
:105070007BFC04E0012221460148FDF775FC70BD70
:105080000008024010B52A482A49086002204860FA
:10509000002128488160C1604FF4502101614FF424
:1050A000A00141610021017641768176C17601211E
:1050B00001774177FCF73BFD08B1FCF75DF90E2065
:1050C0001D494861002088610120C86100200860F6
:1050D00048608860C8600861012008620E2048624C
:1050E0001448FCF797FA08B1FCF746F90221114879
:1050F000FCF7D0F908B1FCF73FF901210D48FCF7A6
:10510000C9F908B1FCF738F90A48FDF734F908B1D4
:10511000FCF732F9002009490860012048600020AE
:10512000C8608860012008610020087510BD00007B
:1051300000680040C801002024020020F001002087
:105140001CB50020009001901248134908600846E1
:10515000FDF77AF908B1FCF70FF9002000900190F3
:10516000002269460C48FDF742F908B1FCF704F942
:10517000102269460848FDF73AF908B1FCF7FCF837
:1051800000210548FDF7B4F910210348FDF7B0F9F7
:105190001CBD0000007400404C02002008B500BF98
:1051A000002000900648006840F4001004490860A0
:1051B0000846006800F40010009000BF00BF08BD62
:1051C0003038024000B587B0142102A8FBF730F850
:1051D00000BF002001904048006840F080003E4938
:1051E00008600846006800F08000019000BF00BF22
:1051F00000BF002001900846006840F001000860F0
:105200000846006800F00100019000BF00BF00BF29
:10521000002001900846006840F00200086008463F
:10522000006800F00200019000BF00BF00BF002036
:1052300001900846006840F00400086008460068D5
:1052400000F00400019000BF00BF00BF00200190EB
:105250000846006840F0080008600846006800F052
:105260000800019000BF00BF4EF20F000290012025
:10527000039000200490059002A91848FDF76CFAED
:10528000032002900120039000200490059002A9C1
:105290001348FDF761FA40F6983002900020039021
:1052A000049002A90F48FDF757FA0420029000204D
:1052B0000390049002A90C48FDF74EFA01224EF229
:1052C0000F010648FDF750FB002203210448FDF7BB
:1052D0004BFB07B000BD0000303802400008024020
:1052E0000000024000040240000C024010B50C48CF
:1052F0000C4908604015486030210A48816005214A
:10530000C160002101610849416100218161C161E1
:1053100001210162FDF75CFF08B1FCF72DF810BD1B
:10532000003800403003002000EE020000B595B0C8
:10533000002011901290139014900F9010901C2147
:1053400008A8FAF775FF20216846FAF771FF374879
:10535000374908600020486000213548816040F2EC
:105360008F61C1600021016141618161FEF70AFF27
:1053700008B1FCF701F84FF48050119011A92C48A6
:10538000FEF783FF08B1FBF7F7FF2948FFF7CFF9D6
:1053900008B1FBF7F1FF00200F9010900FA92448EF
:1053A000FEF7C6FE08B1FBF7E7FF6020089000207B
:1053B000099009900A900B900C900D900E9000228D
:1053C00008A91B48FFF72FF908B1FBF7D5FF042206
:1053D00008A91748FFF727F908B1FBF7CDFF082206
:1053E00008A91348FFF71FF908B1FBF7C5FF0C2206
:1053F00008A90F48FFF717F908B1FBF7BDFF002018
:10540000009001900290039004904FF4005005909A
:105410000020079069460648FEF750FE08B1FBF7EA
:10542000ABFF0348FFF782F815B000BD0000014054
:10543000A002002000B587B00020039004900590E2
:105440000690019002904FF080401349086053206D
:1054500048600021104881601321C1600021016172
:105460008161FEF78FFE08B1FBF786FF4FF4805095
:10547000039003A90848FEF708FF08B1FBF77CFF7B
:1054800000200190029001A90348FEF751FE08B1E7
:10549000FBF772FF07B000BD6002002000B595B0B9
:1054A000002011901290139014900F9010901C21D6
:1054B00008A8FAF7BDFE20216846FAF7B9FE37487A
:1054C000374908600020486000213548816040F27B
:1054D0008F61C1600021016141618161FEF752FE6F
:1054E00008B1FBF749FF4FF48050119011A92C48E7
:1054F000FEF7CBFE08B1FBF73FFF2948FFF717F98E
:1055000008B1FBF739FF00200F9010900FA9244835
:10551000FEF70EFE08B1FBF72FFF60200890002079
:10552000099009900A900B900C900D900E9000221B
:1055300008A91B48FFF777F808B1FBF71DFF042205
:1055400008A91748FFF76FF808B1FBF715FF082205
:1055500008A91348FFF767F808B1FBF70DFF0C2205
:1055600008A90F48FFF75FF808B1FBF705FF002017
:10557000009001900290039004904FF40050059029
:105580000020079069460648FEF798FD08B1FBF732
:10559000F3FE0348FEF7CAFF15B000BD000401404A
:1055A000E002002010B50B480B4908604FF4E130D1
:1055B0004860002108488160C16001610C2141619F
:1055C00000218161C161FFF7D5F908B1FBF7D4FE75
:1055D00010BD0000004400403804002010B50B4806
:1055E0000B4908604FF4E1304860002108488160B1
:1055F000C16001610C21416100218161C161FFF73E
:10560000B9F908B1FBF7B8FE10BD00000048004032
:105610007804002000BFFEE77047000013B59DF836
:105620000000042810D13248027832490120FFF7E7
:1056300015FD2F480078401CC0B22D49087006287F
:1056400007D90020087004E0012211462A48FDF71E
:105650008BF99DF80100042810D1284802782549CB
:105660000220FFF7FBFC25480078401CC0B223490C
:105670000870062807D90020087004E001220221E2
:105680001D48FDF771F99DF80200042810D11C484F
:10569000027818490420FFF7E1FC19480078401C03
:1056A000C0B217490870062807D90020087004E026
:1056B000012204211048FDF757F99DF80300042842
:1056C00010D1104802780B490820FFF7C7FC0D489D
:1056D0000078401CC0B20B490870062807D900208A
:1056E000087004E0012208210348FDF73DF91CBDC4
:1056F0007E0000205C000020000802407F000020A7
:10570000800000208100002013B59DF800000328D0
:1057100010D13248027832490120FFF79FFC2F4810
:105720000078401CC0B22D490870032807D900201A
:10573000087004E0012211462A48FDF715F99DF88A
:105740000100032810D12848027825490220FFF7DC
:1057500085FC25480078401CC0B223490870032806
:1057600007D90020087004E0012202211D48FDF73E
:10577000FBF89DF80200032810D11C480278184954
:105780000420FFF76BFC19480078401CC0B2174991
:105790000870032807D90020087004E001220421C2
:1057A0001048FDF7E1F89DF80300032810D11048D8
:1057B00002780B490820FFF751FC0D480078401C87
:1057C000C0B20B490870032807D90020087004E014
:1057D000012208210348FDF7C7F81CBD7A0000200C
:1057E00072000020000802407B0000207C000020A6
:1057F0007D00002010B50346881AD8601C6AD8685E
:10580000A04204DC1C6A6442D868A04202DA00208C
:10581000986112E0DC68986920449861D3E9060435
:10582000A04202DDD869986107E0D3E9060464422A
:10583000A04202DAD86940429861D3E90304001B10
:105840005861D3ED000A93ED030AB8EEC00A20EECA
:10585000800A93ED011AD3ED060AF8EEE00A01EE94
:10586000200A93ED021AD3ED050AF8EEE00A01EEE4
:10587000200ABDEEC00A83ED090AD3E90904A0425B
:1058800002DD986A586207E0D3E909046442A04245
:1058900002DA986A40425862D8681861586A10BDA6
:1058A00010B5FDF75FFF10BD0EB500BF00200090E2
:1058B0000B48006840F080500949086008460068BD
:1058C00000F08050009000BF00BFE02001904FF03A
:1058D0000110029001A8FDF7E1FEFDF739FF0EBDB2
:1058E000403802407047000070B508211E48FDF79F
:1058F00033F808B9012000E00020450110211A48C2
:10590000FDF72AF808B9012000E0002045EA00155B
:1059100080211548FDF720F808B9012000E000209B
:1059200045EAC0054FF480710F48FDF715F808B936
:10593000012000E0002045EA80054FF400710A488C
:10594000FDF70AF808B9012000E0002045EA40050B
:1059500004210648FDF700F808B9012000E0002006
:1059600045EA0004204670BD00040240000C0240DD
:1059700013B59DF80000082805D1002201211B481D
:10598000FCF7F2FF04E0012211461848FCF7ECFF97
:105990009DF80100082805D1002202211348FCF7D8
:1059A000E3FF04E0012202211048FCF7DDFF9DF82F
:1059B0000200082805D1002204210C48FCF7D4FF7E
:1059C00004E0012204210948FCF7CEFF9DF8030002
:1059D000082805D1002208210448FCF7C5FF04E08F
:1059E000012208210148FCF7BFFF1CBD000802404E
:1059F000704710B5FDF77CFD10BD000000B597B0F5
:105A000030210BA8FAF714FC142106A8FAF710FCB1
:105A10000020029003900490059000BF01902B4855
:105A2000006840F08050294908600846006800F08E
:105A30008050019000BF00BF00BF002001902448AB
:105A4000006840F48040224908600846006800F47D
:105A50008040019000BF00BF01200B9000040C901B
:105A6000022011904105129104211391A821149153
:105A700002211591042116910BA8FEF7DFF808B159
:105A8000FBF77AFC0F200690022007900020089078
:105A90004FF4A05009904FF480500A90052106A8B9
:105AA000FDF788FF08B1FBF767FC01200290C020DA
:105AB00003900521049102A8FDF7ACFE08B1FBF7A5
:105AC0005BFCFEF737F817B000BD0000403802401D
:105AD000007000401448006840F4700012490860EB
