:020000040800F2
:10000000282800209D01000861440008B13900083B
:100010005D440008F505000851510008000000008B
:10002000000000000000000000000000F54700088C
:100030003709000800000000E9460008F7470008FB
:10004000B7010008B7010008B7010008B7010008B0
:10005000B7010008B7010008B7010008B7010008A0
:10006000B7010008B7010008B7010008B701000890
:10007000B7010008B7010008B7010008B701000880
:10008000B7010008B7010008B7010008B701000870
:10009000B7010008B7010008B7010008B701000860
:1000A000B7010008B7010008B7010008B701000850
:1000B0003D490008B7010008B7010008B701000872
:1000C000B7010008B7010008B7010008B701000830
:1000D000B7010008B701000841510008B701000846
:1000E000B7010008B7010008B7010008B701000810
:1000F000B7010008B7010008B7010008B701000800
:10010000B7010008B7010008B7010008B7010008EF
:10011000B7010008B7010008B7010008B7010008DF
:10012000B7010008B7010008B7010008B7010008CF
:10013000B7010008000000000000000009060008E8
:10014000F9050008B7010008B7010008B701000869
:10015000B7010008B7010008B7010008B70100089F
:10016000B7010008B7010008B7010008B70100088F
:10017000B7010008B70100080000000000000000FF
:10018000B7010008B7010008DFF80CD000F07AF8DA
:1001900000480047AD510008282800200648804745
:1001A00006480047FEE7FEE7FEE7FEE7FEE7FEE75C
:1001B000FEE7FEE7FEE7FEE7D948000889010008F0
:1001C0002DE9F05F0546002092469B46884606468C
:1001D000814640241BE0284641464746224600F01F
:1001E00041F853465A46C01A914110D31146184659
:1001F000224600F028F82D1A67EB01084F462246E8
:100200000120002100F01FF817EB00094E41201ECD
:10021000A4F10104DFDC484631462A464346BDE8E6
:10022000F09FD2B201E000F8012B491EFBD27047CB
:100230000022F6E710B513460A4604461946FFF7B2
:10024000F0FF204610BD202A04DB203A00FA02F11C
:10025000002070479140C2F1200320FA03F31943B4
:1002600090407047202A04DB203A21FA02F0002156
:10027000704721FA02F3D040C2F1200291400843B6
:1002800019467047064C074D06E0E06840F0010350
:1002900094E8070098471034AC42F6D3FFF778FF94
:1002A00084530008A45300083C4880893C4949888D
:1002B000C0EBA10040F6A72148434FF47A7190FBB0
:1002C000F1F036498860374880893549C989C0EBE3
:1002D000A10040F6A72148434FF47A7190FBF1F05A
:1002E00030498860304880892D494989C0EBA10098
:1002F00040F6A72148434FF47A7190FBF1F02A4968
:1003000088602A4880892649C988C0EBA10040F648
:10031000A72148434FF47A7190FBF1F0234988609C
:100320001E48806845F20821884204DD03202049E8
:100330000860204908701B48806845F208218842FF
:1003400004DD03201A4908601A494870164880687D
:1003500045F20821884204DD03201549086015494B
:1003600088701248806845F20821884204DD032025
:100370000F4908600F49C8700848806807494860FD
:10038000084880680749486007488068064948600F
:10039000064880680549486070470000C400002096
:1003A0008C220020100100205C010020A801002008
:1003B000880000208C00002008B564200123094A31
:1003C00009490090094801F0CDFB0A2001F080F9AD
:1003D0000423044A0649054801F088FD00F0AEFAFE
:1003E00008BD00008C220020800000209C220020FC
:1003F0007000002000B5064800F020F9054800F024
:100400001DF9054800F01AF9044800F017F900BD7D
:10041000C4000020100100205C010020A801002081
:1004200037B50446082C6ED2DFE804F0052B0441F2
:10043000576E94BACFE06948027869494FF400508A
:1004400003F030FD65480078401CC0B26349087075
:10045000052801D90020087001221146614801F0E9
:1004600053FA012202215F4801F04EFA01220421D1
:100470005C4801F049FA012208215A4801F044FA87
:10048000A9E05648027856494FF4005003F00AFD9F
:1004900052480078401CC0B250490870052801D964
:1004A00000200870DDE9010104F064F993E04B4895
:1004B00002784D494FF4005003F0F4FC47480078AF
:1004C000401CC0B245490870032801D900200870BB
:1004D000DDE9010104F03CF87DE040480278424942
:1004E0004FF4005003F0DEFC3C480078401CC0B2E2
:1004F0003A490870032801D900200870DDE901019C
:1005000003F0B0FF67E065E03448027837494FF404
:10051000005003F0C7FC31480078401CC0B22F499E
:100520000870062801D900200870012211462D48C4
:1005300001F0EAF9012202212A4801F0E5F901223D
:100540000421284801F0E0F901220821254801F0A2
:10055000DBF940E02148027825494FF4005003F0D0
:10056000A1FC1E480078401CC0B21C490870082835
:1005700001D900200870012211461A4801F0C4F97F
:1005800001220221174801F0BFF901220421154878
:1005900001F0BAF901220821124801F0B5F91AE078
:1005A000012251030F4801F0AFF9012211460D4815
:1005B00001F0AAF9012202210A4801F0A5F901225D
:1005C0000421084801F0A0F901220821054801F0A2
:1005D0009BF900E000BF00BF3EBD00008700002087
:1005E000A200002000080240A80000209200002085
:1005F0009900002000BFFEE710B5024800F00AFC99
:1006000010BD0000F401002010B5024800F002FC0B
:1006100010BD0000F40100200169002906DB826999
:10062000016911600021C269116006E00021826940
:10063000116001694942C2691160704700218269F5
:100640001160C26911607047F0B505AC70CC00272D
:100650000760476087608561C6614461076180ED1E
:10066000080AC0ED090A80ED0A0ABC46C0F834C089
:10067000C0F830C0C0F82CC003648264C163D0F8F5
:1006800010C0C0F844C0BC46C0F838C0F0BD00007F
:100690001EB59FED2C0AF0EE401A9FED2B0AB0EE2E
:1006A000402A9FED2A0AF0EE402A4FF4FA642848C7
:1006B000011F40F23C622346CDE900210290114621
:1006C000B0EE621AF0EE420AB0EE610A2148FFF77E
:1006D000BBFF1F480838011F40F23C622346CDE9AA
:1006E000002102901146B0EE621AF0EE420AB0EE1E
:1006F000610A1948FFF7A8FF1848011F40F23C6241
:100700002346CDE9002102901146B0EE621AF0EEC8
:10071000420AB0EE610A1248FFF796FF0F48083808
:10072000011F40F23C622346CDE9002102901146B0
:10073000B0EE621AF0EE420AB0EE610A0948FFF725
:1007400083FF1EBD8FC2753E1283C03D00000000B6
:1007500040040140C400002010010020400001407E
:100760005C010020A801002010B50446012C2CD10A
:10077000174842680168203003F060FF144908619F
:10078000144842680168203003F058FF114908619D
:10079000114842680168203003F050FF0E4908619B
:1007A0000E4842680168203003F048FF0B49086199
:1007B0000748FFF731FF0748FFF72EFF0648FFF70E
:1007C0002BFF0648FFF728FF01E0FFF713FE10BDDF
:1007D000C4000020100100205C010020A8010020BE
:1007E0000D4800690D490E4A126841F822000A4876
:1007F00081680C480A4A126840F8221008480068CC
:10080000401C07490860B0F57A7F04DB00200649E8
:100810000860034908607047C40000204C030020B2
:100820006C000020EC1200206400002001460878D3
:1008300010381823B0FBF3F20848805CC865032A1F
:1008400005D908686FF30900001D886503E0086892
:100850006FF309008865886D7047000064530008D5
:10086000014600208A6A8B69CBB932B1012A0DD0CA
:10087000022A03D0032A10D10EE000BFCB6A03F096
:100880008073B3F1807F00D1012007E0CB6AB3F120
:10089000C07F00D1012001E000E000BF34E08B699F
:1008A000B3F5005F1AD132B1012A07D0022A03D072
:1008B000032A11D10AE000BF01200EE0CB6A03F049
:1008C0008073B3F1807F00D1012006E0CB6AB3F1E1
:1008D000C07F00D1012000E000BF15E032B1012A45
:1008E00005D0022A04D0032A0CD103E000BF00BFC8
:1008F000012008E0CB6A03F08073B3F1807F00D160
:10090000012000E000BF00BF704730B504682468D4
:1009100024F4802405682C60046863608468402C9B
:1009200004D10468A2600468E16003E00468A16087
:100930000468E26030BD7047704700002DE9F04167
:100940000024002500260027002000F0C1FEA0465C
:1009500016E0012000F0BCFE1648408804EBA0041D
:100960001448C08905EBA0051248408906EBA00693
:100970001048C08807EBA00708F101001FFA80F8B3
:10098000B8F10A0FE5DB0A20B4FBF0F00A498881D0
:100990000A20B5FBF0F0094988810A20B6FBF0F087
:1009A000074988810A20B7FBF0F006498881BDE835
:1009B000F08100008C220020C400002010010020E3
:1009C0005C010020A801002010B5024692F82030FA
:1009D000012B01D0022B06D110684069084314682E
:1009E0006061002010BD506A40F4802050620120F8
:1009F000F8E7F0B504460D461E4694F820702068CE
:100A00008368A86800B900E000BF012F01D0022F61
:100A10007CD103F0806030B903F0006018B903F0B6
:100A20008050002873D0C3F30161022905D9606AA0
:100A300040F4000060620120F0BD01208840306079
:100A4000A86860B9B5F800C0E86840EA4C5C206866
:100A500000F5C07000EB0110C0F800C00FE0D5E950
:100A600001C040EACC00D5F80CC040EA0C00D4F834
:100A700000C00CF5C07C0CEB011CCCF80000D5F8D4
:100A800010C0206800F5C07000EB0110C0F804C071
:100A9000287D01280ED1206800F5C07000EB011000
:100AA000406840F4807C206800F5C07000EB0110C5
:100AB000C0F804C0D079000692F806C040EA0C40A5
:100AC00092F805C040EA0C2C10794CEA000C206822
:100AD00000F5C07000EB0110C0F80CC0D078000623
:100AE00092F802C040EA0C4092F801C040EA0C20A3
:100AF00092F800C040EA0C00D4F800C00CF5C07CAD
:100B00000CEB011CCCF80800206801E016E00FE0B7
:100B100000F5C07000EB0110006840F0010C206887
:100B200000F5C07000EB0110C0F800C0002083E7A2
:100B3000606A40F40010606201207DE7606A40F462
:100B400080206062012077E7F0B504460A462168FC
:100B500094F82050012D01D0022D7ED1424901F59B
:100B60000071086840F001000860086820F47C50BB
:100B700008600868566A40EA06200860107D00F0A8
:100B80001F06012000FA06F3C8699843C861A1F561
:100B90000071D069C8B9D1F80C029843C1F80C02B1
:100BA000908880B2968940EA064601F51070576930
:100BB00040F83760108880B2168940EA064601F591
:100BC0001070576900EBC7004660D069012819D141
:100BD000D1F80C021843C1F80C02908880B2168834
:100BE00040EA064601F51070576940F83760908971
:100BF00080B2168940EA064601F51070576900EB8D
:100C0000C7004660906928B9D1F804029843C1F83A
:100C1000040204E0D1F804021843C1F80402106988
:100C200028B9D1F814029843C1F8140204E0D1F8AD
:100C300014021843C1F81402106A012804D1D1F833
:100C40001C021843C1F81C02D1F8000220F0010078
:100C5000C1F800020020F0BDFFE7606A40F4802088
:100C600060620120F7E700000064004010B5024612
:100C700092F82030012B01D0022B06D11068406978
:100C8000884314686061002010BD506A40F48020E1
:100C900050620120F8E7704770B5044694F8205080
:100CA000012D01D0022D7CD151B92068C06800F01F
:100CB000030080B9606A40F400106062012070BDDA
:100CC0002068006900F0030028B9606A40F4001051
:100CD00060620120F3E7206800F5D87000EB011096
:100CE000006800F004009060906840B9206800F54A
:100CF000D87000EB01100068400D106007E020681C
:100D000000F5D87000EB01100068C0085060206842
:100D100000F5D87000EB0110006800F002004008F8
:100D2000D060206800F5D87000EB0110406800F03A
:100D30000F001061206800F5D87000EB01104068CA
:100D400000F47F40000A9061206800F5D87000EB45
:100D500001104068000C5061206800F5D87000EB6D
:100D6000011080681870206800F5D87000EB011041
:100D7000806800F47F40000A5870206800F5D87041
:100D800000EB0110806800F47F00000C9870206870
:100D900000F5D87000EB01108068000ED870206854
:100DA00000E031E000F5D87000EB0110C068187168
:100DB000206800F5D87000EB0110C06800F47F4097
:100DC000000A5871206800F5D87000EB0110C06867
:100DD00000F47F00000C9871206800F5D87000EBDB
:100DE0000110C068000ED87131B92068C06840F0A9
:100DF00020002668F06005E02068006940F02000CF
:100E00002668306100205AE7606A40F48020606202
:100E1000012054E72DE9F05F04460025206846696B
:100E20002068D0F80490206887682068D0F80CA06B
:100E30002068D0F810B02068D0F8188006F00100C3
:100E4000002855D007F00100C0B10120216888605A
:100E500007F0020018B1204600F08DFA0EE007F00E
:100E6000040010B145F4006508E007F0080010B177
:100E700045F4805502E0204600F07CFA07F48070CB
:100E8000C8B14FF480702168886007F4007018B111
:100E9000204600F078FA0EE007F4806010B145F4C7
:100EA000005508E007F4006010B145F4804502E009
:100EB000204600F067FA07F48030C8B14FF4803064
:100EC0002168886007F4003018B1204600F05DFA10
:100ED0000EE007F4802010B145F4004508E007F467
:100EE000002010B145F4803502E0204600F04CFAB5
:100EF00006F0080038B10AF0100020B145F4007582
:100F000010202168C86006F0040040B10AF0080013
:100F100028B108202168C860204600F0BFF906F01B
:100F2000020038B12068C06800F0030010B120460C
:100F300000F0B6F906F0400038B10BF0100020B117
:100F400045F4806510202168086106F0200040B15A
:100F50000BF0080028B1082021680861204600F045
:100F6000D7F906F0100038B12068006900F00300DE
:100F700010B1204600F0CDF906F4003040B109F080
:100F8000100028B1102021684860204600F0C2F906
:100F900006F4803040B109F0080028B1082021682B
:100FA0004860204600F0F2F906F4004088B309F0EA
:100FB000040078B306F4807020B108F0010008B195
:100FC00045F0010506F4007020B108F0020008B1F8
:100FD00045F0020506F4806020B108F0040008B175
:100FE00045F0040506F40060A0B108F0700088B177
:100FF00008F07000402817D006DC10280BD02028FD
:101000000CD0302819D10CE0502810D0602814D111
:1010100010E01DE019E045F008050FE045F010056F
:101020000CE045F0200509E045F0400506E045F0FC
:10103000800503E045F4807500E000BF00BF206834
:10104000806920F070002168886104202168486070
:101050002DB1606A284360622046FFF71CFEBDE8A0
:10106000F09F70B504460CB9012070BD94F82000C3
:1010700010B9204600F0B0F82068006820F00200A7
:101080002168086000F046FC05460DE000F042FCD7
:10109000401B0A2808D9606A40F4003060620520CD
:1010A00084F820000120E0E72068406800F002009A
:1010B0000028EBD12068006840F00100216808603A
:1010C00000F028FC05460DE000F024FC401B0A2837
:1010D00008D9606A40F400306062052084F820007E
:1010E0000120C2E72068406800F001000028EBD032
:1010F000207E012806D12068006840F08000216829
:10110000086005E02068006820F080002168086021
:10111000607E012806D12068006840F04000216808
:10112000086005E02068006820F040002168086041
:10113000A07E012806D12068006840F020002168C8
:10114000086005E02068006820F020002168086041
:10115000E07E012806D12068006820F01000216898
:10116000086005E02068006840F010002168086011
:10117000207F012806D12068006840F0080021681F
:10118000086005E02068006820F008002168086019
:10119000607F012806D12068006840F004002168C3
:1011A000086005E02068006820F0040021680860FD
:1011B000D4E9020108432169084361690843616871
:1011C000491E08432168C86100206062012084F83C
:1011D0002000002049E7000010B586B00446142125
:1011E00001A8FFF725F82A49206888424ED100BFA0
:1011F000002000902748006840F080602549086082
:101200000846006800F08060009000BF00BF00BF8B
:10121000002000900846006840F000700860084612
:10122000006800F00070009000BF00BF00BF002009
:10123000009018481038006840F002001549103935
:1012400008600846006800F00200009000BF00BF80
:10125000602001900220029000200390032004905F
:101260000920059001A90C4800F046FA0022114619
:10127000402001F091F9402001F07EF90022114652
:101280003F2001F089F93F2001F076F906B010BD4A
:1012900000680040403802400004024070470000EF
:1012A00010B50446124B134A00212046FFF7F4FC08
:1012B00008B1FFF741FB0F48006840F22131884236
:1012C00014D10C48806888B90A48006908280DD1F3
:1012D00009480068094AD2E900321043084AC2E9C5
:1012E0000030084B08490948FFF783FB10BD000098
:1012F0005800002034020020480000204000002058
:1013000050000020600000201C020020F40100209A
:1013100070477047704770B5044694F82000012864
:1013200022D1022084F820002068006820F001000B
:101330002168086000F0EEFA05460DE000F0EAFAD8
:10134000401B0A2808D9606A40F40030606205201A
:1013500084F82000012070BD2068406800F0010082
:101360000028EBD16062F6E7606A40F4002060621A
:101370000120F0E7704710B5044601212046FFF731
:1013800075FC10BD7047704770477047704770B567
:1013900003460024002500BF5879012801D102200E
:1013A00070BD0120587100BF0220187118680468D0
:1013B00040F6FE7090408443D1E9000640EA0605FD
:1013C00005FA02F004431868046018680668C02033
:1013D00090408643186806600120187100BF002005
:1013E000587100BF00BFDBE710B504460CB90120FF
:1013F00010BD207920B900206071204600F008F867
:101400000220207100202061012020710020EFE7E0
:1014100010B586B00446142101A8FEF709FF19494A
:10142000206888422BD100BF002000901648006839
:1014300040F00050144908600846006800F0005071
:10144000009000BF00BF00BF002000900E48103881
:10145000006840F001000C49103908600846006837
:1014600000F00100009000BF00BF30200190032079
:1014700002900020039001A9044800F03DF906B055
:1014800010BD0000007400404038024000000240DF
:1014900030B502460023002400BF5079012801D155
:1014A000022030BD0120507100BF02201071106871
:1014B000006801258D4028431568286091B910689F
:1014C000006800F004031068006800F03804042B82
:1014D0001CD1382C1AD11068406840F00100156802
:1014E000686013E01068006800F4802310680068EA
:1014F00000F46014B3F5802F08D1B4F5601F05D156
:101500001068406840F002001568686001201071A2
:1015100000BF0020507100BF00BFC2E7014691F834
:101520003500022803D0802048650120704705203F
:1015300081F835000868006820F001000A68106032
:101540000020F3E72DE9F0410446002500F0E2F920
:10155000074614B90120BDE8F081606A00B100BF00
:1015600000BF002084F8340000BF022084F835005A
:101570002068006820F00100216808600AE000F09F
:10158000C9F9C01B052805D920206065032084F80F
:101590003500E0E72068006800F001000028EED187
:1015A0002068056821480540D4E901010843E16845
:1015B00008432169084361690843A1690843E16957
:1015C0000843216A08430543606A042803D1D4E92B
:1015D0000B0108430543206805602068456925F034
:1015E0000705606A0543606A04280DD1A06A0543B7
:1015F000E06A48B12046FFF733F928B14020606522
:10160000012084F83500A6E7206845612046FFF7F1
:101610000DF9064694F85C103F208840B060002029
:101620006065012084F83500002094E73F8010F0C9
:101630002DE9F04704460D4616461F464FF00008B8
:10164000D4F8589000BF94F83400012802D1022049
:10165000BDE8F087012084F8340000BF94F835001D
:1016600001282BD1022084F83500002060653B461C
:10167000324629462046FFF748F994F85C103F208F
:101680008840C9F808002068006840F0160021680A
:1016900008602068406940F0800021684861206C43
:1016A00028B12068006840F00800216808602068C0
:1016B000006840F001002168086006E000BF0020DB
:1016C00084F8340000BF4FF002084046C0E7000035
:1016D00070B5044600F01EF906462546681C10B198
:1016E00004480078054400BF00F014F9801BA842AC
:1016F000FAD370BDBC000020F8B502460B460025A9
:10170000002400200021DCE0012606FA01F51E6815
:1017100006EA0504AC4273D15E68022E02D05E6810
:10172000122E13D1CF0802F1200656F827004E07DB
:10173000F70E0F26BE40B0434F07FF0E1E69BE4096
:101740003043CF0802F1200646F8270010684F000A
:101750000326BE40B0431E7906F003064F00BE408C
:10176000304310605E68012E08D05E68022E05D0FE
:101770005E68112E02D05E68122E13D190684F0061
:101780000326BE40B0434F00DE68BE403043906049
:10179000506801268E40B0431E79C6F300168E4075
:1017A00030435060D0684F000326BE40B0434F0026
:1017B0009E68BE403043D0605E6806F08056B6F149
:1017C000805F7DD100BF00260096404E366846F40B
:1017D00080463E4F3E603E46366806F480460096A0
:1017E00000BF00BF3A4E8F0856F827008E07370F0C
:1017F0000F26BE40B043374EB24202D1002624E04D
:101800005EE0354EB24201D101261EE0334EB242B7
:1018100001D1022619E0324EB24201D1032614E072
:10182000304EB24201D104260FE02F4EB24201D118
:1018300005260AE02D4EB24201D1062605E02C4EC7
:10184000B24201D1072600E008268F073F0FBE40B5
:1018500030431F4E8F0846F82700264E3068A043BD
:101860005E6806F48036B6F5803F00D12043214EF5
:101870003060361D3068A0435E6806F40036B6F569
:10188000003F00D120431B4E361D3060361D3068AE
:10189000A0435E6806F48016B6F5801F00D1204391
:1018A000144E08363060361D3068A0435E6806F47A
:1018B0000016B6F5001F00D120430E4E0C363060E6
:1018C000491C1029FFF420AFF8BD00004438024045
:1018D00008380140000002400004024000080240B5
:1018E000000C0240001002400014024000180240A8
:1018F000001C0240003C0140024613690B400BB142
:10190000012000E0002070470AB1816101E00B0472
:10191000836170470148006870470000B4000020F0
:1019200010B586B004462068806805908B49206811
:10193000884201D18A4801E04FF04020806804903D
:1019400020684068039085492068884201D1844816
:1019500001E04FF04020406802906068B0F5007FE1
:1019600002D0606800286FD1059800F002000228BC
:1019700006D1039800F0800010B1204602F0C8F8AC
:10198000049800F0010030B1029800F0400010B15E
:10199000204602F087F8049800F04000402832D139
:1019A000029800F0200070B36C492068884201D191
:1019B0006B4801E04FF04020406820F06000674A2B
:1019C0002168914201D1664901E04FF04021486011
:1019D0002068406820F0A0002168486000BF002017
:1019E00001902068C068019020688068019000BF65
:1019F00000BF012084F84100606C40F00200606488
:101A0000204600F0B3FB059800F00800082831D10B
:101A1000039800F0200000282CD02068406820F0B7
:101A2000A000216848604D492068884201D14C4897
:101A300001E04FF04020406820F06000474A2168F4
:101A4000914202D1464902E015E04FF04021486042
:101A500000BF0020019020688068019000BF00BF97
:101A6000012084F84100606C40F00400606420466E
:101A700000F07CFB70E0049800F00200022806D120
:101A8000029800F0800010B1204602F05DF8059841
:101A900000F0010030B1039800F0400010B1204682
:101AA00001F0E2FF059800F04000402827D103989C
:101AB00000F0200018B32068406820F06000216822
:101AC000486026492068884201D1254801E04FF04E
:101AD0004020406820F0A000204A2168914201D1B6
:101AE0001F4901E04FF040214860012084F8410087
:101AF000606C40F002006064204600F037FB049800
:101B000000F00800082827D1029800F0200018B340
:101B100012492068884201D1114801E04FF040206D
:101B2000406820F0A0000D4A2168914201D10C4983
:101B300001E04FF0402148602068406820F06000DC
:101B400021684860012084F84100606C40F0040086
:101B50006064204600F00AFB06B010BD003800406B
:101B6000003400402DE9F84F04460D4617461E4646
:101B7000DDF828904FF00008C24694F84100012893
:101B800002D04FF0020AA3E10DB107B116B901204E
:101B9000BDE8F88F00BF94F84000012801D1022071
:101BA000F6E7012084F8400000BF2068C06900F01B
:101BB0000708B8F1030F02D0B8F1050F14D14FF6A2
:101BC000FF7000EA460020854FF6FF7000EA4600ED
:101BD00060854FF6FF7000EA460020864FF6FF70E2
:101BE00000EA4600608603E02685668526866686CE
:101BF00000206064052084F841002068C06900F47A
:101C00004078B8F5007F02D0B8F1000F7ED135F8EA
:101C1000020B2168C860608D401E6085B149206854
:101C2000884201D1B04801E04FF04020C06940F443
:101C30008060AC4A2168914201D1AB4901E04FF08C
:101C40004021C8612068C06940F480602168C86193
:101C50002068C06900F44070B0F5007F18D100BF63
:101C6000002000909F492068884201D19E4801E0F1
:101C70004FF04020C06800909A492068884201D106
:101C8000994801E04FF040208068009000BF00BFFD
:101C900069E0608D50B300204B4601220221009084
:101CA000204601F087FE30B1606C40F001006064B6
:101CB0004FF0010A0CE135F8020B2168C860608D15
:101CC000401E608520688068C0F3C00070B1B8F124
:101CD000000F0BD100BF00200090206880680090AA
:101CE00000BF00BF606C40F004006064608ED0B341
:101CF00001204B46024601460090204601F05AFE64
:101D000040B1606C40F00100606400E032E04FF0F0
:101D1000010ADDE073492068884201D1724801E080
:101D20004FF04020C06827F8020B608E401E60868E
:101D30006C492068884201D16B4801E04FF0402097
:101D40008068C0F3801070B100BF00200090206850
:101D5000C068009020688068009000BF00BF606C81
:101D600040F002006064608E002892D1608D0028EF
:101D70008FD1A8E028885B4A2168914201D15A4955
:101D800001E04FF04021C860AD1C608D401E6085B1
:101D900054492068884201D1534801E04FF0402067
:101DA000C06940F480604F4A2168914201D14E4998
:101DB00001E04FF04021C8612068C06940F48060B4
:101DC0002168C8612068C06900F44070B0F5407FA8
:101DD0000AD100BF002000902068C06800902068F1
:101DE0008068009000BF00BF67E0608DC0B3012035
:101DF0004B46024602210090204601F0DBFD30B147
:101E0000606C40F0010060644FF0010A60E02888D7
:101E1000344A2168914201D1334901E04FF0402119
:101E2000C860AD1C608D401E60852E4920688842C8
:101E300001D12D4801E04FF040208068C0F3C00080
:101E400070B1B8F5807F0BD100BF002000902068F2
:101E50008068009000BF00BF606C40F004006064C8
:101E6000608E50B300204B46012211460090204660
:101E700001F0A0FD30B1606C40F0010060644FF0F3
:101E8000010A25E02068C06827F8020B608E401E1A
:101E9000608620688068C0F3801070B100BF0020A9
:101EA00000902068C068009020688068009000BFA3
:101EB00000BF606C40F002006064608E002894D126
:101EC000608D002891D1606C08B14FF0010A00BF0D
:101ED000012084F8410000BF002084F8400000BFCA
:101EE000504655E600380040003400402DE9FF43DD
:101EF00081B004461D4600260027B04694F84100F4
:101F0000012802D04FF002081CE1029810B103989A
:101F100000B11DB9012005B0BDE8F08300BF94F801
:101F20004000012801D10220F5E7012084F840009B
:101F300000BF029860620398E0622068C06900F008
:101F40000707032F01D0052F14D14FF6FF7000EAC9
:101F5000450020854FF6FF7000EA450060854FF68A
:101F6000FF7000EA450020864FF6FF7000EA45004A
:101F7000608603E02585658525866586002060648A
:101F8000052084F841007348E16B08647248E16BF6
:101F9000C8637248E16BC8646E48A16B08646E4800
:101FA000A16BC8636D48A16BC8642068C06900F468
:101FB0004077B7F5007F01D0002F58D103AE238EB4
:101FC0003268DFF89C91D4F800C0CC4502D1DFF82C
:101FD00094C101E04FF0402C0CF10C01E06BFFF7D5
:101FE00027FB5F492068884201D15E4801E04FF03D
:101FF0004020406840F00100594A2168914201D1D7
:10200000584901E04FF04021486002AE238DD4F8DA
:1020100000C00CF10C023168A06BFFF709FB2068CF
:10202000406840F00200216848602068C06900F400
:102030008060B0F5806F19D049492068884201D18D
:10204000484801E04FF04020C06940F48060444AB5
:102050002168914201D1434901E04FF04021C8611C
:102060002068C06940F480602168C86169E0206828
:10207000C06900F44070B0F5407F0AD100BF002075
:1020800000902068C068009020688068009000BFC1
:1020900000BF02AE238DDFF8C890D4F800C0CC4555
:1020A00002D1DFF8C0C001E04FF0402C0CF10C026F
:1020B0003168A06BFFF7BCFA29492068884201D13A
:1020C000284801E04FF04020406840F00200244AD8
:1020D0002168914201D1234901E04FF0402148603D
:1020E00003AE238E3268D4F800C00CF10C01E06B13
:1020F000FFF79EFA2068406840F0010021684860C0
:102100002068C06900F48060B0F5806F19D0144970
:102110002068884201D1134801E04FF04020C06997
:1021200040F480600E4A2168914201D10D4901E0DE
:102130004FF04021C8612068C06940F48060216888
:10214000C86100BF00BF002084F8400000BF4046C7
:10215000E1E60000FD3C0008B53B00089D3C00089E
:10216000003800400034004070477047704700005E
:102170002DE9F047044614B90120BDE8F08794F832
:10218000410038B9002084F8400067486063204669
:1021900000F0D2F8022084F841002068C06940F6BF
:1021A000BF7188432168C8610220216808626069A4
:1021B00002283CD0E06808B9102600E02026A0687C
:1021C000202800D87600012000F038FA80462069E7
:1021D000B0F5007F17D1E06850B1B000B8FBF0F067
:1021E00000EB800041006069B1FBF0F0451D13E099
:1021F000F000B8FBF0F000EB800041006069B1FB3B
:10220000F0F0451D08E0B8FBF6F000EB800041005F
:102210006069B1FBF0F0451D0A20B5FBF0F505F053
:102220000109A5EB090047084FEA092902E0022746
:102230004FF0000903274FF00109022F01D3FF2FB0
:1022400005D9606C40F010006064012095E72069BA
:1022500040EA0900384321680862606840F4006081
:10226000A1680843E1680843A16908432168C96976
:1022700040F6BF72914308432168C861206A012873
:102280004AD12A4860632A492068884201D12948F6
:1022900001E04FF04020C06940F6BF718843244AF6
:1022A0002168914201D1234901E04FF04021C861EA
:1022B00002201F4A2168914201D11E4901E04FF0DE
:1022C000402108621A492068884201D1194801E07A
:1022D0004FF04020C0691FFA80FA6068B0F5007FB7
:1022E00001D0606810B94FF4807500E00025A08926
:1022F000218B084321890843284380B240F40060C1
:1023000040EA0A0A0A492068884201D1094801E0E6
:102310004FF04020C0F81CA000206064012084F829
:102320004100002029E700000B3D000821190008AA
:10233000003800400034004010B586B00446142137
:1023400001A8FDF775FF4B49206888427ED100BF88
:10235000002000904848006840F4804046490860EA
:102360000846006800F48040009000BF00BF00BF36
:102370000020009040481038006840F002003E49BC
:10238000103908600846006800F00200009000BFA5
:1023900000BF4FF4304001900220029000200390D3
:1023A000032004900520059001A93448FFF7A4F903
:1023B0004FF48040019002200290002003900320FF
:1023C00004900620059001A92C48FFF795F92C48A8
:1023D0002C4908600020486040212A488160002183
:1023E000C1604FF4806101614900416189008161F0
:1023F0004911C1610021016204214162032181620E
:102400004FF08071C1620163FFF79CF808B1FEF7DD
:1024100093FA00BF1B48A063846300BF18481838B4
:10242000194908604FF0C06048600021164881607B
:10243000C1604FF48061016149004161890081619F
:102440004911C16100210162042100E010E04162F4
:10245000032181624FF08071C1620163FFF772F85E
:1024600008B1FEF769FA00BF0748E063846300BF64
:1024700006B010BD00380040403802400004024061
:1024800070600240E422002044230020704770471F
:102490000348006803490978084401490860704707
:1024A000B4000020BC00002010B50D48006840F4C6
:1024B00000700B4908600846006840F480600860BE
:1024C0000846006840F480700860032000F0A2F81D
:1024D000002000F007F800F02BF8002010BD0000ED
:1024E000003C024070B504460E4800784FF47A7103
:1024F000B1FBF0F00C490968B1FBF0F5284600F09B
:102500001DFD08B1012070BD102C07D2002221460C
:10251000501E00F041F80548046001E00120F2E798
:102520000020F0E7BC000020C0000020B800002020
:1025300008B500BF002000900E48006840F48040BD
:102540000C4908600846006800F48040009000BF15
:1025500000BF00BF00200090081F006840F08050BE
:10256000091F08600846006800F08050009000BF16
:1025700000BF08BD4438024001460846002809DB78
:1025800000F01F0301229A4043099B0003F1E0235E
:10259000C3F8002100BF70472DE9F05F80460D466B
:1025A0001646002702F0D6FD074639462A4633462E
:1025B00001F00700C0F1070ABAF1040F02D94FF089
:1025C000040A01E0C0F1070AD14600F1040ABAF199
:1025D000070F02D24FF0000A01E0A0F1030AD4462F
:1025E0004FF0010A0AFA09FAAAF1010A0AEA020AF4
:1025F0000AFA0CFA4FF0010B0BFA0CFBABF1010BD2
:102600000BEA030B4AEA0B042146404602F0AAFDFE
:10261000BDE8F09F00BF00F00702064B19684FF6B7
:10262000FF031940044B0B4343EA0221014B19609D
:1026300000BF70470CED00E00000FA0570B50146E0
:102640000020002200230024012934D11B4D2D68D5
:1026500005F400031BB1012B29D1194829E0174DBE
:102660002D1F2D6805F48005B5F5800F08D1134D99
:102670002D1F2D6805F03F05124EB6FBF5F207E061
:102680000E4D2D1F2D6805F03F050F4EB6FBF5F2E0
:102690000A4D7C352D68C5F3881505FB02F4074DFE
:1026A0007C352D68C5F30275B4FBF5F001E0002020
:1026B00000BF00BF00BF00BF70BD0000083802406F
:1026C0000080BB0000127A000024F400F8B5044634
:1026D00000250026207800F0010020B9207800F0C5
:1026E000040004282FD100205B498866FFF712F907
:1026F000054606E0FFF70EF9401B022801D903202A
:10270000F8BD56480068C0F3C0600028F2D1606888
:102710008101207A41EA007050498431086001202B
:102720004D498866FFF7F6F8054606E0FFF7F2F830
:10273000401B022801D90320E2E748480068C0F3A3
:10274000C0600028F2D0207800F0020002287DD17D
:1027500000BF0020009041484030006840F08050A9
:102760003E49403108600846006800F08050009003
:1027700000BF00BF3A48006840F4807038490860E4
:10278000FFF7C8F8054606E0FFF7C4F8401B02282B
:1027900001D90320B4E73248006800F480700028B3
:1027A000F2D02E487030006800F440764EB3A08915
:1027B00000F44070B04224D028487030006820F403
:1027C00040760120274908600020086023487030C7
:1027D0000660006800F0010098B1FFF79BF805461D
:1027E00008E0FFF797F8401B41F28831884201D991
:1027F000032085E7194870300068C0F340000028C6
:10280000EFD000BFA08900F44070B0F5407F0CD13C
:1028100012480830006820F4F810134AE1681140AB
:1028200008430E490831086007E00C48083000688A
:1028300020F4F81009490831086008487030006831
:10284000A189C1F30B010843044900E002E07031A3
:10285000086000BF002053E70000474200380240F4
:1028600000700040400E4742FFFCFF0F70B5044669
:102870000D460CB9012070BD5848006800F00F00EB
:10288000A84209D255490D700846006800F00F00B3
:10289000A84201D00120EEE7207800F002000228D3
:1028A0001DD1207800F00400042805D14C480068B0
:1028B00040F4E0504A490860207800F008000828F9
:1028C00005D14748006840F46040454908604448E5
:1028D000006820F0F000A1680843414908602078B2
:1028E00000F00100A8B36068012807D13C4808380F
:1028F0000068C0F34040B8B90120BCE76068022816
:1029000002D06068032807D1354808380068C0F352
:10291000406048B90120AEE7314808380068C0F38C
:10292000400008B90120A6E72D48006820F0030008
:10293000616808432A490860FEF7ECFF064609E093
:10294000FEF7E8FF801B41F28831884202D903205C
:1029500091E707E02248006800F00C006168B0EBE6
:10296000810FEDD11D48006800F00F00A84209D981
:102970001A490D700846006800F00F00A84201D007
:10298000012078E7207800F00400042807D11448DB
:10299000006820F4E050E16808431149086020789D
:1029A00000F00800082808D10D48006820F46040B5
:1029B000216940EAC1000A49086000F043F808496B
:1029C0000968C1F30311074A515CC8400649086011
:1029D0000020FFF787FD00204DE70000003C02408B
:1029E000083802406C530008C00000200120014953
:1029F000C864704700004742014800687047000003
:102A0000C000002000B5FFF7F7FF04490968C1F3D3
:102A10008221034A515CC84000BD000008380240D2
:102A20007C53000800B5FFF7E7FF04490968C1F3CC
:102A30004231034A515CC84000BD000008380240E2
:102A40007C5300082DE9F047002400250026A1460C
:102A50002548006800F00C0020B1042805D00828A3
:102A60003AD105E0DFF8849039E0DFF8849036E071
:102A70001D48001F006800F03F041B48001F00684D
:102A800000F4800078B11A481749091F0968C1F39A
:102A90008811A0FB01700146224600233846FDF74D
:102AA0008FFB05460EE011480F49091F0968C1F365
:102AB0008811A0FB01700146224600233846FDF72D
:102AC0007FFB05460848001F0068C0F30140401C1A
:102AD0004600B5FBF6F902E0DFF8109000BF00BF3A
:102AE0004846BDE8F0870000083802400024F400A2
:102AF00000127A00F8B504460CB90120F8BD207820
:102B000000F00100002874D0F948006800F00C00C3
:102B100004280DD0F648006800F00C00082813D1F6
:102B2000F348001F006800F48000B0F5800F0BD15F
:102B3000EF4808380068C0F34040002859D060686A
:102B4000002856D10120D9E700BF6068B0F5803F6A
:102B500008D1E7480838006840F48030E449083973
:102B600008601EE06068B0F5A02F0DD1E04808387D
:102B7000006840F48020DE49083908600846006893
:102B800040F4803008600CE0D9480838006820F430
:102B90008030D749083908600846006820F4802052
:102BA000086000BF606890B1FEF7B4FE054606E01D
:102BB000FEF7B0FE401B642801D903209EE7CC48F5
:102BC00008380068C0F340400028F1D011E0FEF75B
:102BD000A1FE054606E0FEF79DFE401B642801D9D4
:102BE00003208BE7C24808380068C0F34040002843
:102BF000F1D1207800F0020002285FD1BC480068C3
:102C000000F00C0058B1BA48006800F00C00082829
:102C10001CD1B748001F006800F48000B0B9B44868
:102C200008380068C0F3400020B1E068012801D0F6
:102C3000012063E7AE480838006820F0F8002169F9
:102C400040EAC100AA490839086037E0E06800B3EB
:102C50000120A8490860FEF75DFE054606E0FEF784
:102C600059FE401B022801D9032047E7A048083835
:102C70000068C0F340000028F1D09D480838006883
:102C800020F0F800216940EAC1009949083908603C
:102C900014E0002097490860FEF73CFE054606E078
:102CA000FEF738FE401B022801D9032026E7904892
:102CB00008380068C0F340000028F1D1207800F007
:102CC000080008282CD16069A8B101208A49086051
:102CD000FEF720FE054606E0FEF71CFE401B02281C
:102CE00001D903200AE782486C300068C0F3400035
:102CF0000028F1D014E000207F490860FEF70AFEAA
:102D0000054606E0FEF706FE401B022801D9032017
:102D1000F4E677486C300068C0F340000028F1D139
:102D2000207800F00400042870D100267048383064
:102D3000006800F0805090B900BF002000906C48FF
:102D40003830006840F080506949383108600846E2
:102D5000006800F08050009000BF00BF0126674867
:102D6000006800F48070B0B96448006840F4807076
:102D700062490860FEF7CEFD054606E0FEF7CAFD93
:102D8000401B022801D90320B8E65C48006800F423
:102D900080700028F2D000BFA068012808D15448F4
:102DA0006830006840F001005149683108601DE05A
:102DB000A06805280DD14E486830006840F0040036
:102DC0004B49683108600846006840F0010008601F
:102DD0000CE047486830006820F001004449683141
:102DE00008600846006820F00400086000BFA06882
:102DF000A8B1FEF78FFD054609E0FEF78BFD401BED
:102E000041F28831884202D9032077E626E038482B
:102E100068300068C0F340000028EED013E0FEF7F1
:102E200079FD054608E0FEF775FD401B41F288314B
:102E3000884201D9032061E62D4868300068C0F35C
:102E400040000028EFD1012E07D129483830006812
:102E500020F0805026493831086000BFA069B8B31F
:102E60002348006800F00C0008285ED0A069022802
:102E700046D100201F490866FEF74CFD054606E0D6
:102E8000FEF748FD401B022801D9032036E618480A
:102E900008380068C0F340600028F1D1D4E9070188
:102EA0000843616A40EA81110122A06AC2EB500026
:102EB00041EA00412C20005D41EA00600C49091FF5
:102EC000086001200B490866FEF724FD054607E06F
:102ED0002DE0FEF71FFD401B022801D903200DE65F
:102EE000034808380068C0F340600028F1D01EE0B5
:102EF0000838024000004742800E47420070004000
:102F000000200C490866FEF705FD054606E0FEF7C1
:102F100001FD401B022801D90320EFE506480068A7
:102F2000C0F340600028F2D101E00120E6E5002076
:102F3000E4E50000000047420038024070B5044656
:102F40002546681EB0F1807F01D301200FE0681E86
:102F50004FF0E02148610F214FF0FF3002F002F9FD
:102F600000204FF0E021886107200861002070BD3B
:102F70007047704710B50346002200BF93F83C002D
:102F8000012801D1022010BD012083F83C0000BFC0
:102F900022F0FF00CC6840EA040222F440708C6802
:102FA00040EA040222F480604C6840EA040222F401
:102FB00000600C6840EA040222F480500C6940EA88
:102FC000040222F400504C6940EA040222F48040DA
:102FD000CC6940EA04021868426400BF002083F80C
:102FE0003C0000BF00BFCEE710B5024600BF92F81C
:102FF0003C00012801D1022010BD012082F83C00D4
:1030000000BF022082F83D001068436810688468A1
:1030100023F070030868034324F0800448680443E5
:103020001068436010688460012082F83D0000BF92
:10303000002082F83C0000BF00BFDDE710B5044669
:103040000CB9012010BD94F83D0028B9002084F887
:103050003C00204600F00CF8022084F83D00211DC1
:10306000206801F073FC012084F83D000020E9E7AE
:1030700038B504462549206888420FD100BF00209A
:1030800000902348006840F001002149086008468C
:10309000006800F00100009000BF35E02068B0F14A
:1030A000804F1DD100BF002000901948001F00680C
:1030B00040F001001649091F08600846006800F04A
:1030C0000100009000BF00BF002211461C20FFF746
:1030D00063FA1C20FFF750FA204600F01DF813E0B9
:1030E0000C49206888420FD100BF0020009008489A
:1030F000006840F00200064908600846006800F0D9
:103100000200009000BF00BF38BD00000000014079
:10311000443802400004014001460868C06840F09D
:1031200001000B68D8600868806800F00702062A72
:1031300005D00868006840F001000B6818600020A6
:1031400070472DE9F04104460D4600BF94F83C005D
:10315000012802D10220BDE8F081012084F83C0062
:1031600000BF022084F83D002068866826F07706BC
:1031700026F47F46206886602868502833D00CDC0F
:10318000202850D004DC00284BD0102851D149E031
:10319000302849D040284CD139E060282DD0702803
:1031A00007D0B0F5805F03D0B0F5005F41D10DE0EE
:1031B00040E0D5E902136A68206801F044FC206809
:1031C000866846F077062068866033E0D5E902130A
:1031D0006A68206801F037FC2068806840F480400D
:1031E0002168886026E0EA686968206801F01CFDB3
:1031F0005021206801F032FC1CE0EA686968206810
:1032000001F025FD6021206801F028FC12E0EA6849
:103210006968206801F008FD4021206801F01EFC6B
:1032200008E000BF00BF00BF2968206801F016FC5D
:1032300000E000BF00BF012084F83D0000BF002077
:1032400084F83C0000BF00BF85E7704710B5044616
:1032500020680069C0F34000D8B12068C068C0F39E
:103260004000B0B16FF002002168086101202077B2
:103270002068806900F0030018B12046FFF7E5FFE1
:1032800005E0204600F02AF9204600F0C7F90020AA
:10329000207720680069C0F38000D8B12068C0683A
:1032A000C0F38000B0B16FF0040021680861022013
:1032B00020772068806900F4407018B12046FFF73D
:1032C000C4FF05E0204600F009F9204600F0A6F909
:1032D0000020207720680069C0F3C000D8B12068C2
:1032E000C068C0F3C000B0B16FF008002168086189
:1032F000042020772068C06900F0030018B1204640
:10330000FFF7A3FF05E0204600F0E8F8204600F0B4
:1033100085F90020207720680069C0F30010D8B13B
:103320002068C068C0F30010B0B16FF010002168D1
:103330000861082020772068C06900F4407018B147
:103340002046FFF782FF05E0204600F0C7F8204640
:1033500000F064F9002020772068006900F0010087
:1033600058B12068C06800F0010030B16FF0010072
:1033700021680861204600F07FF920680069C0F3E9
:10338000C01058B12068C068C0F3C01030B16FF0F1
:103390008000216808612046FFF7EAFD2068006987
:1033A000C0F3801058B12068C068C0F3801030B1FD
:1033B0006FF0400021680861204600F08FF9206816
:1033C0000069C0F3401058B12068C068C0F34010D5
:1033D00030B16FF02000216808612046FFF7C9FD79
:1033E00010BD000010B586B00446142101A8FCF7FA
:1033F0001FFF3349206888422ED100BF0020009073
:103400003048006840F001002E4908600846006816
:1034100000F00100009000BF00BF4FF47060019009
:10342000022002900020039004900120059001A941
:103430002548FEF761F90021244800F0F1F8042145
:10344000224800F0EDF80821204800F0E9F80C21AE
:103450001E4800F0E5F831E01D49206888422DD172
:1034600000BF002000901748006840F00400154994
:1034700008600846006800F00400009000BF00BF2C
:103480004FF470700190022002900020039004908D
:103490000320059001A90F48FEF72EF900210E48E0
:1034A00000F0BEF804210C4800F0BAF808210A48E0
:1034B00000F0B6F80C21084800F0B2F806B010BDD4
:1034C000000001403038024000000240CC020020E1
:1034D00000040140000802400C030020704770B552
:1034E00004460D46164600BF94F83C00012801D161
:1034F000022070BD012084F83C0000BF022084F847
:103500003D0036B1042E1BD0082E31D00C2E5ED1DA
:1035100045E02946206801F0ABFA2068806940F058
:103520000800216888612068806920F00400216813
:10353000886120688069296908432168886147E0BB
:103540002946206801F0CCFA2068806940F40060C8
:10355000216888612068806920F480602168886122
:1035600020688069296940EA0120216888612FE08C
:103570002946206801F0F2FA2068C06940F008008E
:103580002168C8612068C06920F004002168C86112
:103590002068C069296908432168C86118E0294684
:1035A000206801F017FB2068C06940F400602168C2
:1035B000C8612068C06920F480602168C861206803
:1035C000C069296940EA01202168C86100E000BFA4
:1035D00000BF012084F83D0000BF002084F83C00BB
:1035E00000BF00BF85E710B504460CB9012010BD2F
:1035F00094F83D0028B9002084F83C00204600F0F3
:103600000CF8022084F83D00211D206801F09EF98D
:10361000012084F83D000020E9E770477047000072
:1036200070B504460E4601223146206801F0FAF9D1
:103630000F492068884203D00E492068884201D192
:10364000012000E0002028B12068406C40F40040D8
:10365000216848642068806800F00705062D05D0C1
:103660002068006840F0010021680860002070BDFB
:1036700000000140000401401CB504461248844289
:1036800021D1FCF711FE11480068FDF76DF81048D4
:10369000006808B1FDF7A4F80E480068401C0D4909
:1036A000086042F2107188420DD900200949086073
:1036B0000948016800918088ADF804000348019A28
:1036C0000068FCF7ADFE1CBD8C02002088000020C5
:1036D00064000020680000208C00002070477047C4
:1036E0002DE9F0470446206805682068C668206810
:1036F00047694FF00008C14605F00F08B8F1000F08
:103700000AD105F0200038B106F0200020B1204693
:1037100001F0DBFABDE8F087B8F1000F6ED007F0DA
:10372000010018B906F49070002867D005F0010078
:1037300030B106F4807018B1E06B40F00100E06336
:1037400005F0040030B107F0010018B1E06B40F063
:103750000200E06305F0020030B107F0010018B18B
:10376000E06B40F00400E06305F0080030B107F0C2
:10377000010018B1E06B40F00800E063E06B70B34B
:1037800005F0200028B106F0200010B1204601F01D
:103790009CFA20684069C0F38019E06B00F00800D3
:1037A00010B9B9F1000F23D0204601F06EFA20685D
:1037B000406900F04000402816D12068406920F0A0
:1037C000400021684861606B50B11748616B086523
:1037D000606BFDF7A3FE10B1606B016D88470CE0D4
:1037E0002046FFF77CFF08E02046FFF778FF04E063
:1037F0002046FFF774FF0020E0638BE705F08000B0
:1038000030B106F0800018B1204601F065FC81E778
:1038100005F0400030B106F0400018B1204601F03C
:1038200044FA77E700BF75E7774C000810B5044607
:103830000CB9012010BDA06900B100E000BF94F8F0
:10384000390028B9002084F83800204600F028F814
:10385000242084F839002068C06820F400502168D2
:10386000C860204601F084FA2068006920F4904086
:10387000216808612068406920F02A0021684861B9
:103880002068C06840F400502168C8600020E063F0
:10389000202084F8390084F83A000020CAE70000AC
:1038A00010B586B00446142101A8FCF7C1FC3A49C2
:1038B0002068884238D100BF002000903748006857
:1038C00040F40030354908600846006800F40030D4
:1038D000009000BF00BF00BF002000902F481038AC
:1038E000006840F001002D49103908600846006862
:1038F00000F00100009000BF00BF0C2001900220EA
:10390000029001200390032004900720059001A954
:103910002348FDF7F1FE002211462620FEF73CFE6B
:103920002620FEF729FE34E01E492068884230D167
:1039300000BF002000901948006840F4802017491B
:1039400008600846006800F48020009000BF00BFB7
:1039500000BF0020009011481038006840F00400BB
:103960000E49103908600846006800F00400009015
:1039700000BF00BF4FF44060019002200290012080
:103980000390032004900720059001A90648FDF745
:10399000B3FE06B010BD00000044004040380240B5
:1039A0000000024000480040000802407047704795
:1039B00000BFFEE72DE9F04704460E4617461D46B8
:1039C000DDF82090FDF7A6FF8046B9F1000F1FD16A
:1039D00013E0681C88B12DB1FDF79CFFA0EB080037
:1039E000A8420AD9012084F8410000BF002084F8D1
:1039F000400000BF0320BDE8F087206880683040A9
:103A0000B04201D1012000E00020B842E1D124E021
:103A100012E0681C80B12DB1FDF77CFFA0EB08001F
:103A2000A84209D9012084F8410000BF002084F891
:103A3000400000BF0320DEE709492068884201D129
:103A4000084801E04FF0402080683040B04201D18A
:103A5000012000E00020B842DBD10020CBE70000CD
:103A6000003800400034004010B504462068C068AB
:103A700081B2E26A901CE0621180608E401E608616
:103A8000608E68B92068406820F060002168486056
:103A9000608D28B9012084F841002046FEF764FBC0
:103AA00010BD000010B5044617492068884201D1B6
:103AB000164801E04FF04020C06881B2E26A901CD5
:103AC000E0621180608E401E6086608ED8B90E491B
:103AD0002068884201D10D4801E04FF04020406845
:103AE00020F06000084A2168914201D1074901E0B5
:103AF0004FF040214860608D28B9012084F84100D2
:103B00002046FEF731FB10BD003800400034004075
:103B100010B50446616A881C606208882168C86024
:103B2000608D401E6085608D68B92068406820F017
:103B3000A00021684860608E28B9012084F8410007
:103B40002046FEF711FB10BD10B50446616A881CC3
:103B500060620888154A2168914201D1144901E048
:103B60004FF04021C860608D401E6085608DD8B9DF
:103B70000E492068884201D10D4801E04FF04020F5
:103B8000406820F0A000094A2168914201D108490B
:103B900001E04FF040214860608E28B9012084F890
:103BA00041002046FEF7E0FA10BD0000003800405A
:103BB0000034004070B50546AC6BE869002867D159
:103BC000E06BA84230D12068C06900F44070B0F5C5
:103BD000007F04D02068C06900F44070A0B92D496E
:103BE0002068884201D12C4801E04FF04020406815
:103BF00020F00100274A2168914201D1264901E0C5
:103C00004FF04021486005E02068406820F0010046
:103C10002168486000206086608D28B9012084F802
:103C200041002046FEF7A0FAA06BA84230D12068E0
:103C3000C06900F44070B0F5007F04D02068C0690E
:103C400000F4407030B92068406820F0020021681C
:103C5000486013E00F492068884201D10E4801E016
:103C60004FF04020406820F002000A4A216891424B
:103C700001D1094901E04FF04021486000206085F2
:103C8000608E28B9012084F841002046FEF76CFAC6
:103C900070BD0000003800400034004070B505469B
:103CA000AC6B2068406820F003002168486011492F
:103CB0002068884201D1104801E04FF04020406860
:103CC00020F003000B4A2168914201D10A4901E02A
:103CD0004FF040214860002060856086012084F814
:103CE0004100606C40F0080060642046FEF73EFA38
:103CF00070BD0000003800400034004070B504463C
:103D0000A56B2846FEF731FA70BD1CB50446206845
:103D10008068019094F84100042830D1019800F0A7
:103D2000010038B120684068C0F3801010B120460F
:103D300000F059F8019800F0400040281FD1206899
:103D40004068C0F34010D0B12068406820F06000A7
:103D50002168486000BF002000902068C068009083
:103D600020688068009000BF00BF012084F84100F7
:103D7000606C40F0020060642046FEF7F7F994F8AA
:103D8000410003282ED1019800F00200022807D13B
:103D900020684068C0F3C01010B1204600F03EF823
:103DA000019800F0080008281CD120684068C0F382
:103DB0004010B8B12068406820F0A0002168486039
:103DC00000BF0020009020688068009000BF00BF06
:103DD000012084F84100606C40F0040060642046DB
:103DE000FEF7C4F91CBD10B504462068C068E16A3E
:103DF0000880E06A801CE062608E401E6086608EF3
:103E000058B92068406820F06000216848600120AF
:103E100084F841002046FEF739FB10BD10B504467A
:103E2000606A00882168C860606A801C6062608D7A
:103E3000401E6085608D58B92068406820F0A00061
:103E400021684860012084F841002046FEF71FFBEE
:103E500010BD000010B5012251031148FDF754FDBB
:103E6000012291030E48FDF74FFD0122D1030C48BA
:103E7000FDF74AFD012211460948FDF745FD0122E3
:103E800002210748FDF740FD012204210448FDF707
:103E90003BFD012208210248FDF736FD10BD000060
:103EA0000008024070B504460E461546705D28B104
:103EB000002221460448FDF727FD04E001222146A7
:103EC0000148FDF721FD70BD0008024010B52A48E9
:103ED0002A49086002204860002128488160C160AA
:103EE0004FF4502101614FF4A0014161002101769E
:103EF00041768176C176012101774177FDF7B1F8EE
:103F000008B1FCF719FD0E201D49486100208861A9
:103F10000120C8610020086048608860C8600861AE
:103F2000012008620E2048621448FCF70DFE08B11B
:103F3000FCF702FD02211148FCF746FD08B1FCF731
:103F4000FBFC01210D48FCF73FFD08B1FCF7F4FC38
:103F50000A48FDF7E0F908B1FCF7EEFC40F2213029
:103F600008490860012048600020C8608860082077
:103F700008610020087510BD00680040F4010020B1
:103F8000500200201C0200201CB50020009001906F
:103F90001248134908600846FDF726FA08B1FCF7F5
:103FA000CBFC002000900190002269460C48FDF7F0
:103FB000EEF908B1FCF7C0FC102269460848FDF78D
:103FC000E6F908B1FCF7B8FC00210548FDF760FAF6
:103FD00010210348FDF75CFA1CBD0000007400408E
:103FE0007802002008B500BF002000900648006855
:103FF00040F40010044908600846006800F400100E
:10400000009000BF00BF08BD3038024000B587B047
:10401000142102A8FCF70CF900BF002001904048D1
:10402000006840F080003E4908600846006800F0E3
:104030008000019000BF00BF00BF00200190084633
:10404000006840F0010008600846006800F00100C8
:10405000019000BF00BF00BF00200190084600682B
:1040600040F0020008600846006800F0020001907D
:1040700000BF00BF00BF002001900846006840F06C
:10408000040008600846006800F00400019000BFCA
:1040900000BF00BF002001900846006840F0080003
:1040A00008600846006800F00800019000BF00BFEB
:1040B0004EF20F0002900120039000200490059022
:1040C00002A91848FDF718FB032002900120039075
:1040D00000200490059002A91348FDF70DFB40F65F
:1040E0009830029000200390049002A90F48FDF739
:1040F00003FB0420029000200390049002A90C48C6
:10410000FDF7FAFA01224EF20F010648FDF7FCFB1B
:10411000002203210448FDF7F7FB07B000BD0000B3
:104120003038024000080240000002400004024013
:10413000000C024010B50C480C490860401548605E
:1041400030210A4881600521C160002101610849D0
:10415000416100218161C16101210162FEF708F81E
:1041600008B1FCF7E9FB10BD003800409C2200209C
:1041700000EE020000B595B000201190129013904F
:1041800014900F9010901C2108A8FCF751F82021E2
:104190006846FCF74DF8374837490860002048600A
:1041A00000213548816040F28F61C16000210161CA
:1041B00041618161FEF742FF08B1FCF7BDFB4FF49E
:1041C0008050119011A92C48FEF7BBFF08B1FCF7F5
:1041D000B3FB2948FFF707FA08B1FCF7ADFB002055
:1041E0000F9010900FA92448FEF7FEFE08B1FCF7CF
:1041F000A3FB602008900020099009900A900B9082
:104200000C900D900E90002208A91B48FFF767F94B
:1042100008B1FCF791FB042208A91748FFF75FF9E2
:1042200008B1FCF789FB082208A91348FFF757F9E2
:1042300008B1FCF781FB0C2208A90F48FFF74FF9E2
:1042400008B1FCF779FB00200090019002900390E8
:1042500004904FF4005005900020079069460648EE
:10426000FEF788FE08B1FCF767FB0348FFF7BAF8D2
:1042700015B000BD00000140CC02002000B587B0A1
:1042800000200390049005900690019002904FF05A
:104290008040134908605320486000211048816025
:1042A0001321C160002101618161FEF7C7FE08B1E1
:1042B000FCF742FB4FF48050039003A90848FEF737
:1042C00040FF08B1FCF738FB00200190029001A9E3
:1042D0000348FEF789FE08B1FCF72EFB07B000BDCE
:1042E0008C02002000B595B0002011901290139020
:1042F00014900F9010901C2108A8FBF799FF202123
:104300006846FBF795FF374837490860002048604A
:1043100000213548816040F28F61C1600021016158
:1043200041618161FEF78AFE08B1FCF705FB4FF49D
:104330008050119011A92C48FEF703FF08B1FCF73B
:10434000FBFA2948FFF74FF908B1FCF7F5FA00200E
:104350000F9010900FA92448FEF746FE08B1FCF715
:10436000EBFA602008900020099009900A900B90C9
:104370000C900D900E90002208A91B48FFF7AFF893
:1043800008B1FCF7D9FA042208A91748FFF7A7F8E3
:1043900008B1FCF7D1FA082208A91348FFF79FF8E3
:1043A00008B1FCF7C9FA0C2208A90F48FFF797F8E3
:1043B00008B1FCF7C1FA0020009001900290039030
:1043C00004904FF40050059000200790694606487D
:1043D000FEF7D0FD08B1FCF7AFFA0348FFF702F88B
:1043E00015B000BD000401400C03002010B50B48BF
:1043F0000B4908604FF4E1304860002108488160B3
:10440000C16001610C21416100218161C161FFF73F
:104410000DFA08B1FCF790FA10BD0000004400400E
:10442000A423002010B50B480B4908604FF4E1307D
:104430004860002108488160C16001610C21416130
:1044400000218161C161FFF7F1F908B1FCF774FA4D
:1044500010BD000000480040E423002000BFFEE73C
:104460007047000013B59DF80000042810D13248B1
:10447000027832490120FFF715FD2F480078401CD3
:10448000C0B22D490870062807D90020087004E042
:10449000012211462A48FDF737FA9DF80100042849
:1044A00010D12848027825490220FFF7FBFC254857
:1044B0000078401CC0B223490870062807D90020A4
:1044C000087004E0012202211D48FDF71DFA9DF845
:1044D0000200042810D11C48027818490420FFF774
:1044E000E1FC19480078401CC0B217490870062842
:1044F00007D90020087004E0012204211048FDF7CC
:1045000003FA9DF80300042810D1104802780B49E3
:104510000820FFF7C7FC0D480078401CC0B20B49CB
:104520000870062807D90020087004E0012208213D
:104530000348FDF7E9F91CBDB000002092000020FF
:1045400000080240B1000020B2000020B3000020AB
:1045500013B59DF80000032810D132480278324983
:104560000120FFF79FFC2F480078401CC0B22D4966
:104570000870032807D90020087004E001221146C2
:104580002A48FDF7C1F99DF80100032810D12848F9
:10459000027825490220FFF785FC25480078401C59
:1045A000C0B223490870032807D90020087004E02E
:1045B000012202211D48FDF7A7F99DF802000328FA
:1045C00010D11C48027818490420FFF76BFC1948E9
:1045D0000078401CC0B217490870032807D9002092
:1045E000087004E0012204211048FDF78DF99DF8C0
:1045F0000300032810D1104802780B490820FFF768
:1046000051FC0D480078401CC0B20B4908700328CB
:1046100007D90020087004E0012208210348FDF7B3
:1046200073F91CBDAC000020A80000200008024067
:10463000AD000020AE000020AF00002010B5034602
:10464000881AD8601C6AD868A04204DC1C6A6442DC
:10465000D868A04202DA0020986112E0DC6898690C
:1046600020449861D3E90604A04202DDD86998612C
:1046700007E0D3E906046442A04202DAD869404266
:104680009861D3E90304001B5861D3ED000A93ED50
:10469000030AB8EEC00A20EE800A93ED011AD3EDAA
:1046A000060AF8EEE00A01EE200A93ED021AD3EDB5
:1046B000050AF8EEE00A01EE200ABDEEC00A83ED1D
:1046C000090AD3E90904A04202DD986A586207E0AA
:1046D000D3E909046442A04202DA986A404258626F
:1046E000D8681861586A10BD7047000070B508217D
:1046F0001E48FDF701F908B9012000E0002045013E
:1047000010211A48FDF7F8F808B9012000E0002050
:1047100045EA001580211548FDF7EEF808B901209B
:1047200000E0002045EAC0054FF480710F48FDF716
:10473000E3F808B9012000E0002045EA80054FF4C5
:1047400000710A48FDF7D8F808B9012000E0002000
:1047500045EA400504210648FDF7CEF808B90120D6
:1047600000E0002045EA0004204670BD000402403D
:10477000000C024013B59DF80000082805D1002266
:1047800001211B48FDF7C0F804E00122114618483A
:10479000FDF7BAF89DF80000082805D10022012194
:1047A0001348FDF7B1F804E0012211461048FDF767
:1047B000ABF89DF80000082805D1002201210C4823
:1047C000FDF7A2F804E0012211460948FDF79CF824
:1047D0009DF80000082805D1002201210448FDF7BA
:1047E00093F804E0012211460148FDF78DF81CBD45
:1047F00000080240704710B5FDF74AFE10BD0000EA
:1048000000B597B030210BA8FBF712FD142106A8C4
:10481000FBF70EFD0020029003900490059000BF6E
:1048200001902B48006840F08050294908600846F4
:10483000006800F08050019000BF00BF00BF002062
:1048400001902448006840F48040224908600846EE
:10485000006800F48040019000BF00BF01200B9071
:1048600000040C9002201190410512910421139133
:10487000A821149102211591042116910BA8FEF78D
:1048800039F908B1FCF758F80F200690022007907C
:10489000002008904FF4A05009904FF480500A90E7
:1048A000052106A8FDF7E2FF08B1FCF745F8012055
:1048B0000290C02003900521049102A8FDF706FF95
:1048C00008B1FCF739F8FEF791F817B000BD000009
:1048D00040380240007000401448006840F4700006
:1048E000124908601248006840F001001049086051
:1048F00000200F49083108600D4800680D49084044
:104900000B4908600C48091D0860081F006820F466
:104910008020091F0860002005490C3108604FF015
:1049200000600249803908607047000088ED00E0AF
:1049300000380240FFFFF6FE1030002410B5024898
:10494000FEF784FC10BD00008C02002010B5026848
:10495000294B98420ED0B0F1804F0BD0274B984294
:1049600008D0274B984205D0264B984202D0264BC0
:10497000984203D122F070024B681A431E4B9842B2
:1049800020D0B0F1804F1DD01C4B98421AD01C4B48
:10499000984217D01B4B984214D01B4B984211D011
:1049A0001A4B98420ED01A4B98420BD0194B984292
:1049B00008D0194B984205D0184B984202D0184B9A
:1049C000984203D122F44072CB681A4322F080034C
:1049D0004C6943EA040202608B68C3620B6883621D
:1049E000054B984202D0084B984201D10B690363F2
:1049F0000123436110BD000000000140000400409D
:104A000000080040000C004000040140004001404C
:104A1000004401400048014000180040001C0040D4
:104A20000020004030B501F01F05012404FA05F311
:104A3000046A9C430462046A01F01F0502FA05F54A
:104A40002C43046230BD30B50C46816821F47F41AF
:104A500042EA032525432943816030BD0A46816827
:104A600021F0700142F00703194381607047000094
:104A700030B5056A25F001050562026A436884695C
:104A800024F0700424F003040D682C4322F0020289
:104A90008D682A43104DA84200D103E00F4DA84273
:104AA00006D100BF22F00802CD682A4322F004029A
:104AB000094DA84202D0094DA84207D123F48073C2
:104AC00023F400734D692B438D692B43436084614C
:104AD0004D684563026230BD0000014000040140A2
:104AE00030B5056A25F010050562026A43688469DD
:104AF00024F4E04424F440740D6844EA052422F0D0
:104B000020028D6842EA0512124DA84200D103E04E
:104B1000114DA84207D100BF22F08002CD6842EAC1
:104B2000051222F040020B4DA84202D00A4DA842C5
:104B300009D123F4806323F400634D6943EA8503BC
:104B40008D6943EA8503436084614D688563026231
:104B500030BD0000000001400004014030B5056A8E
:104B600025F480750562026A4368C46924F0700404
:104B700024F003040D682C4322F400728D6842EA8D
:104B80000522124DA84200D103E0114DA84207D1E1
:104B900000BF22F40062CD6842EA052222F480625E
:104BA0000A4DA84202D00A4DA84209D123F48053ED
:104BB00023F400534D6943EA05138D6943EA051355
:104BC0004360C4614D68C563026230BD00000140AE
:104BD0000004014030B5056A25F480550562036A7A
:104BE0004468C26922F4E04222F440720D6842EA4D
:104BF000052223F400538D6843EA0533084DA8428B
:104C000002D0084DA84204D124F480444D6944EAFE
:104C100085144460C2614D680564036230BD0000C4
:104C2000000001400004014030B50B461446026A02
:104C3000056A25F001050562816921F0F00141EA6C
:104C4000041122F00A021A438161026230BD30B5BC
:104C50000B461446056A25F0100505628169026A53
:104C600021F4704141EA043122F0A00242EA031229
:104C70008161026230BD70B50546AC6B0020E085F5
:104C8000E0842046FEF72BFD70BD0168C96821F461
:104C900090710268D1600168496921F001010268E0
:104CA0005161202180F83A10704710B50446206801
:104CB000C06820F040002168C860202084F83900D6
:104CC0002046FEF774FE002010BD70B5044694F82F
:104CD0003A0022284AD1A068B0F5805F13D1A56AB6
:104CE000206940B920684068C0F308002880A06AA5
:104CF000801CA06219E020684068C0B22880A06AC9
:104D0000401CA06211E0206938B920684068C1B237
:104D1000A26A501CA062117007E02068406800F091
:104D20007F01A26A501CA0621170E08D401E80B20B
:104D3000E085C8B92068C06820F020002168C860FC
:104D40002068C06820F480702168C86020684069CD
:104D500020F0010021684861202084F83A002046B4
:104D6000FEF724FE002070BD0020FCE70220FAE7D9
:104D70002DE9F04104462068006920F44050E168C4
:104D80000843216808612169A068084361690843F4
:104D9000E16940EA01052068C06849F20C61884376
:104DA00028432168C8602068406920F44070A169E8
:104DB000084321684861E069B0F5004F7ED1C449DD
:104DC0002068884203D0C349206888425DD1FDF73E
:104DD00029FE00EBC00101EB001061684900B0FB47
:104DE000F1F06421B0FBF1F00601FDF71BFE00EBD2
:104DF000C00101EB001061684900B0FBF1F7FDF75D
:104E000011FE00EBC00101EB001061684900B0FB2E
:104E1000F1F06421B0FBF1F000EBC00101EB0010F8
:104E2000A7EB8000322101EBC0006421B0FBF1F060
:104E300000F0F80006EB4006FDF7F4FD00EBC001C2
:104E400001EB001061684900B0FBF1F7FDF7EAFDE6
:104E500000EBC00101EB001061684900B0FBF1F00C
:104E60006421B0FBF1F000EBC00101EB0010A7EBF7
:104E70008000322101EBC0006421B0FBF1F000F0B2
:104E8000070030442168886020E1FDF7BBFD00EB9E
:104E9000C00101EB001061684900B0FBF1F0642132
:104EA000B0FBF1F00601FDF7ADFD00EBC00101EB39
:104EB000001061684900B0FBF1F700E045E0FDF744
:104EC000A1FD00EBC00101EB001061684900B0FBDF
:104ED000F1F06421B0FBF1F000EBC00101EB001038
:104EE000A7EB8000322101EBC0006421B0FBF1F0A0
:104EF00000F0F80006EB4006FDF784FD00EBC00172
:104F000001EB001061684900B0FBF1F7FDF77AFD95
:104F100000EBC00101EB001061684900B0FBF1F04B
:104F20006421B0FBF1F000EBC00101EB0010A7EB36
:104F30008000322101EBC0006421B0FBF1F000F0F1
:104F40000700304421688860C0E0614920688842D9
:104F500003D06049206888425CD1FDF763FD00EB17
:104F6000C00101EB001061688900B0FBF1F6FDF7AC
:104F700059FD00EBC00101EB001061688900B0FB36
:104F8000F1F06421B0FBF1F000EBC00101EB001087
:104F9000A6EB8000322101EB00106421B0FBF1F0A0
:104FA00000F0F006FDF73EFD00EBC00101EB001044
:104FB00061688900B0FBF1F06421B0FBF1F006EB11
:104FC0000016FDF72FFD00EBC00101EB001061683A
:104FD0008900B0FBF1F7FDF725FD00EBC00101EB07
:104FE000001061688900B0FBF1F06421B0FBF1F0C2
:104FF00000EBC00101EB0010A7EB8000322101EBB8
:1050000000106421B0FBF1F000F00F003044216883
:1050100088605BE0FDF7F6FC00EBC00101EB0010DF
:1050200061688900B0FBF1F6FDF7ECFC00EBC00114
:1050300001EB001061688900B0FBF1F06421B0FB66
:10504000F1F000EBC00101EB0010A6EB8000322173
:1050500001EB00106421B0FBF1F000F0F006FDF769
:10506000D1FC00EBC00101EB001061688900B0FBCE
:10507000F1F06421B0FBF1F006EB0016FDF7C2FC85
:1050800000EBC00101EB001061688900B0FBF1F793
:10509000FDF7B8FC00EBC00101EB0010616889006E
:1050A000B0FBF1F06421B0FBF1F000EBC00101EBCB
:1050B0000010A7EB8000322101EB00106421B0FB4F
:1050C000F1F000F00F00304421688860BDE8F08105
:1050D0000010014000140140014691F839002128D8
:1050E0002CD18868B0F5805F0FD10A6A1088C0F3B0
:1050F00008000B685860086918B9086A801C0862C3
:1051000009E0086A401C086205E00B6A581C086246
:1051100018780B685860C88C401E80B2C88458B993
:105120000868C06820F080000B68D8600868C06814
:1051300040F040000B68D860002070470220FCE778
:1051400010B50248FEF7CCFA10BD0000A4230020E1
:1051500000BFFEE702480068C0F30220704700006D
:105160000CED00E010B5002804DB0A07130E054A19
:10517000135406E00A07140E034A00F00F031B1F26
:10518000D45410BD00E400E018ED00E002E008C8CF
:10519000121F08C1002AFAD170477047002001E0B1
:1051A00001C1121F002AFBD170470000FDF77CF9F6
:1051B000FFF726FBFEF72AFFFEF7DCFFFFF792F86A
:1051C000FEF710FFFEF7B6FFFBF7F6F8FBF760FA05
:1051D000FEF77CFEFEF7D8FEFFF708F9FFF722F98D
:1051E000FFF74CF800F07EF800202C49086054E0EE
:1051F00001202A4908602A4890ED000A294880EDDC
:10520000080A294890ED000A264880ED090A274837
:1052100090ED000A264880ED080A264890ED000A25
:10522000234880ED090A244890ED000A234880EDC8
:10523000080A234890ED000A204880ED090A214819
:1052400090ED000A204880ED080A204890ED000A01
:105250001D4880ED090A1E480068124908601D4873
:105260000068134908601C480068144908601B481E
:105270000068154908600920FCF72AFA18480068F8
:1052800058B1002007490860094908600B490860C7
:105290000D4908600920FCF71BFAA9E788000020E7
:1052A00014000020C4000020180000201C00002072
:1052B0001001002020000020240000205C010020BC
:1052C000280000202C000020A80100203000002031
:1052D00004000020080000200C0000201000002026
:1052E0000000002010B5FEF7B5FD02201749086048
:1052F000FFF7FCF9164908700846007800F0010035
:105300001449087012480078C0F34400124908702C
:105310001048007828B900224FF480410F48FCF76C
:10532000F3FA0C480078012804D10022C1030B488D
:10533000FCF7EAFA0020054908600949487108713C
:10534000087048708870C87010BD00008800002088
:105350008400002085000020860000200008024014
:105360008C00002000061016000610160000000039
:105370000000000001020304060708090000000005
:1053800001020304A453000800000020C400000030
:105390008C51000868540008C400002064270000F5
:1053A0009C51000800000000983A0000983A000064
:1053B000983A0000983A00001F856B3E00000000FC
:1053C0001F856B3E000000001F856B3E0000000043
:1053D0001F856B3E00000000000000000102030476
:1053E0000706070838000000000000004E0000001B
:1053F00000000000000000000000000000000000AD
:10540000000000000000000000000000000000009C
:105410000000000000A000000000000000000000EC
:1054200000000000008500000000000002000000F5
:105430000000000000000100010000000001000168
:105440000001000000000101010000000100010056
:10545000000000000000000000000000100000003C
:08546000010000000024F4002B
:040000050800018965
:00000001FF
